:0E0000000C946A060C9400000C9400000C9402
:10000E009D060C9400000C9400000C9400000C94BF
:10001E0000000C9400000C9400000C947B070C94D0
:10002E0000000C9400000C9400000C9421070C941A
:10003E0000000C9420070C9400000C94FD060C9408
:10004E0000000C9400000C9496070C9400000C9485
:10005E0000000C9400000C9400000C9400000C9412
:10006E0000000C9400000C9400000C9400000C9402
:10007E0000000C9400000C9400000C9400002C0561
:10008E0026053405320538054205440548054E055A
:10009E000402FF02042040FF402000000000000088
:1000AE00005F00000007000700147F147F14242A4D
:1000BE007F2A122313086462364955225000050325
:1000CE000000001C2241000041221C00082A1C2AAC
:1000DE000808083E08080050300000080808080804
:1000EE00003030000020100804023E5149453E0009
:1000FE00427F400042615149462141454B3118141F
:10010E00127F1027454545393C4A4949300171094E
:10011E0005033649494936064949291E0036360037
:10012E000000563600000008142241141414141452
:10013E0041221408000201510906324979413E7EDE
:10014E001111117E7F494949363E414141227F417D
:10015E0041221C7F494949417F090901013E414124
:10016E0051327F0808087F00417F41002040413F07
:10017E00017F081422417F404040407F0204027FED
:10018E007F0408107F3E4141413E7F090909063E2A
:10019E004151215E7F0919294646494949310101DC
:1001AE007F01013F4040403F1F2040201F7F20180D
:1001BE00207F6314081463030478040361514945D6
:1001CE004300007F4141020408102041417F00009E
:1001DE00040201020440404040400001020400209D
:1001EE00545454787F484444383844444420384466
:1001FE0044487F3854545418087E09010208145498
:10020E00543C7F0804047800447D40002040443D67
:10021E0000007F10284400417F40007C04180478C1
:10022E007C0804047838444444387C1414140808B8
:10023E001414187C7C080404084854545420043FB9
:10024E004440203C4040207C1C2040201C3C403040
:10025E00403C44281028440C5050503C4464544CAC
:10026E0044000836410000007F00000041360800BF
:10027E000201020402081C2A08087E1111117E7F59
:10028E00494949337F494949367F01010103E0510C
:10029E004F41FF7F4949494977087F0877494949C6
:1002AE0049367F1008047F7C2112097C7F081422B6
:1002BE004120413F017F7F020C027F7F0808087FAB
:1002CE003E4141413E7F0101017F7F090909063E02
:1002DE004141412201017F0101274848483F1C222C
:1002EE007F221C63140814637F404040FF070808F8
:1002FE00087F7F407F407F7F407F40FF017F4848DF
:10030E00307F4830007F7F48483000224149493EC7
:10031E007F083E413E462919097F20545454783CAB
:10032E004A4A49317C545428007C0404040CE0549D
:10033E004C44FC38545454086C107C106C44445497
:10034E0054287C2010087C78422412787C10284493
:10035E000020443C047C7C0810087C7C1010107C2F
:10036E0038444444387C0404047C7C141414083847
:10037E004444444404047C04040C5050503C18245F
:10038E007E241844281028447C404040FC0C101059
:10039E00107C7C407C407C7C407C40FC047C50503B
:1003AE00207C5020007C7C5050200028445454382F
:1003BE007C10384438085434147CC700D000CE006A
:1003CE00C803CA03CC03C4E8F1F2E8EBFFF6E8FF7A
:1003DE000000D0E5EAF2E8F4E8EAE0F6E8FF000013
:1003EE00CFE0F0E0ECE5F2F0FB00C4E8F1F2E8EB70
:1003FE00FFF6E8E80000D0E5EAF2E8F4E8EAE0F615
:10040E00E8E80000C4E0F2F7E8EAEEE220F2E5ECFC
:10041E00EF00CAE0EBE8E1F0EEE2EAE020EAEB2ED4
:10042E0000007420EAF3E1E020EEF2EAEB2E000089
:10043E00D0F2FDED20EDE0F7E0EBFCEDE0FF00008B
:10044E00D0F2FDED20ECE8ED20743E363000502069
:10045E00EAEEEBEEEDFB20ECE0EAF1007420EEF2BA
:10046E00E1EEF0E00000647420EEF2E1EEF0E00068
:10047E00543120E7E0E42E20EAEBE0EF2E00543278
:10048E0020E7E0E42E20EAEBE0EF2E007420EAF302
:10049E00E1E020E7E0E42E20EAEB00007420EAF32E
:1004AE00E1E020EEF2EAEB2E0000CEE1FAE5EC20E0
:1004BE00E3EEEBEEE200D1EAEEF0EEF1F2FC20EE2E
:1004CE00F2E12E00C4EBE8F22E20E8ECEFF3EBFCA9
:1004DE00F1E00000D4E0EAF220EEE1FAE5EC20EEE5
:1004EE00F2E10000CAEEFDF4F42E20F0E0F1F5EE9C
:1004FE00E4E00000D220EAF3E1E00000D220EAEED0
:10050E00EBEEEDFB20EDE8E70000D220EAEEEBEE9D
:10051E00EDFB20E2E5F0F500C2EAEB2E0000C2FB97
:10052E00EAEB2E00D100ECE8ED00ECEC2EF0F22E12
:10053E00F1F200002500ECEB2E00ECEB2E2FF70075
:10054E002A313020ECF10000000004009001000080
:10055E002D2D2D2D2D2D2D2D2D2D2D2D2D2D2D2DBD
:10056E0000204E696B6F706F6C002020202070721F
:10057E006573656E742020202020002020202D3CE5
:10058E00D1CFC8D0D23E2D2020202000202020EA1E
:10059E00EEEDF2F0EEEBEBE5F02020200020687798
:1005AE0020762E312E316420202020202000207332
:1005BE007720762E302E33322E6620756E6900200F
:1005CE00C8EDE8F6E8E0EBE8E7E0F6E8FF2020000B
:1005DE002020E4E0F2F7E8EAEEE220D2202020200C
:1005EE000020202020CDE0E9E4E5EDEE20202020C3
:1005FE002000256920F8F2000F127912F310B111C4
:10060E00260F8210AB10EB122E13CB0EDF0E010055
:10061E0000000000CDE5F220EDE0E7EDE0F7E5EDBE
:10062E00EDFBF500202020E4E0F2F7E8EAEEE22010
:10063E0020202000202020207420EAF3E1E0212059
:10064E00202020007420EAEEEBEEEDFB20E2E5F038
:10065E00F521200020CFEEE4EAEBFEF7E5EDFB20DE
:10066E00EDE520002020E2F1E520E4E0F2F7E8EAF3
:10067E00E820200020E8EBE820EEF2EAEBFEF7E5BA
:10068E00EDFB200020EFEEEBEDEEF1F2FCFE20E2B2
:10069E00F1E52100202020CDE520E2E5F0EDFBE99B
:1006AE002020200020202020E4E0F2F7E8EA20209D
:1006BE002020200020202020CDE520E2E5F0EDFBDB
:1006CE00E9202020002020202020E4E0F2F7E8EAB4
:1006DE00202020202000207420EAEEEBEEEDFB20FF
:1006EE00E2E5F0F5212000202020C4E8F1F2E8EB4D
:1006FE00FFF6E8FF20202000CFF0E5F0E2E0F2FC6C
:10070E0000EFF0EEF6E5F1F13F003C454E543EC4ED
:10071E00E0203C4553433ECDE5F200C4E8F1F2E85B
:10072E00EBEBFFF6E8FF00C2F0E5ECFF3A2532698D
:10073E003A2532693A2532690074EAEEEB20E2205E
:10074E00252D332E32662025730074EAF3E1E02066
:10075E0020252D332E3266202573002563CAEB2DFE
:10076E00257320256325342E306620ECEB2FF70001
:10077E002563D2DDCD20253369252500207420EA9E
:10078E00EEEBEEEDFB20EDE8E7212000D0E5EAF2FE
:10079E00E8F4E8EAE0F6E8FF0020D0E5EAF2E8F453
:1007AE00E8EAE0F6E8FF0074EAEEEB20ED20252DF6
:1007BE00332E32662025730020202020202020207A
:1007CE00202020202020202000D2DDCD25336925B9
:1007DE002500D15CD120257320CA2025690056F250
:1007EE002025342E306620ECEB2FF70051E3202528
:1007FE00342E326620ECEB00202020C4E8F1F2E823
:10080E00EBEBFFF6E8FF202020002020D0E5EAF2F7
:10081E00E8F4E8EAE0F6E8FF202000CFF0EEF6E597
:10082E00F1F100EEEAEEEDF7E5ED2100CAE0EBE8BE
:10083E00E1F0EEE2EAE000CEF2E4EEE7E8F0EEE21E
:10084E00E0EDEDEE3A2000512025342E326620ECFC
:10085E00EB006B2025312E346620ECEB0069202551
:10086E006920E8ECEF2E0000D4037F0A000000E0C0
:10087E00039E0B000000EE0375130300F8037513BF
:10088E000100020404751302000212047513040021
:10089E00022004E116000002300480140003003E22
:1008AE000480140003004E0480140003015C0480D5
:1008BE00140003016A048014000301740480140000
:1008CE0003017E0480140003018C048014000301D4
:1008DE009A048014000301AA048014000301B804D2
:1008EE008014000301C4048014000301D204801498
:1008FE00000301E2048014000301F20480140003DB
:10090E00010002052B160003020A052B1600030236
:10091E0018052B160003020000030F0F0102400FF3
:10092E00020D4E0F0304240F0403A90F2D25732D62
:10093E00002D3DCCE5EDFE3D2D005B25735D0025C4
:10094E0073002D25732D002A25732A0025312E3490
:10095E00662025730025332E3266202573002575FB
:10096E00202573003C25733E00C8EDE8F6E8E0EB69
:10097E00E8E7E0F6E8FF00CFEEE4EAEBFEF7E8F298
:10098E00E520EEE4E8ED00E4E0F2F7E8EA202121CC
:10099E002100EDE0E6ECE8F2E5203C454E543E0049
:1009AE0049443A2532582532580020C8EDE8F6E879
:1009BE00E0EBE8E7E0F6E8FF200020EFF0EEF8EBE2
:1009CE00E00020F3F1EFE5F8EDEE210020EDE5205B
:1009DE00EFF0EEF8EBE02E20C4EBFF00EFEEE2F2CC
:1009EE00EEF0E020EDE0E6ECE8F2E5003C454E549A
:1009FE003E2E203C4553433E00E4EBFF20E2FBF548
:100A0E00EEE4E02E00202020CAE0EBE8E1F0EEE27A
:100A1E00EAE02020200020E4EEE7E8F02E20EAEBCA
:100A2E00E0EFE0EDE020002020CEF2E1EEF0203508
:100A3E003020ECEB2E202000202020C4EBFF20EDF8
:100A4E00E0F7E0EBE02020200020EDE0E6ECE8F21D
:100A5E00E5203C454E543E2020002D4E414E0000D8
:100A6E0001002D4E414E00494E460000010002008D
:100A7E00560501002D0A58050200300A5A051100CC
:100A8E0000055E05090011056F0511001A057805B0
:100A9E0011002B05890511003C059A0511004D0525
:100AAE00AB0511005E05BC0511006F05CD051100EB
:100ABE008005DE0511009105EF05010006005C05BD
:100ACE001600C90E060601001F0A1C061000A2051C
:100ADE0022061000B20532061000C20542061000B2
:100AEE00D20522061000E20532061000F20552066B
:100AFE001000020662061000120672061000220690
:100B0E00820610003206920610004206A20610005F
:100B1E005206B20610006206420611007206C206A6
:100B2E0011008306D30611009406E4061100A506F3
:100B3E00F5060900B60606070900BF060F071100E5
:100B4E00C80618070C00D90629071000E50622066C
:100B5E001000F506320610000507420610001507B4
:100B6E002206100025073206100035078A071000EE
:100B7E00450722061000550732061000650752067B
:100B8E0010007507620610008507720610009507A3
:100B9E0082061000A50792061000B507A2061000E7
:100BAE00C507B2061000D50742061100E507C206BA
:100BBE001100F607D30611000708E4061000180806
:100BCE00A20610002808B206100038088A070D0089
:100BDE0048089A0709005508060709005E080F071E
:100BEE001100670818070E007808A707110086087D
:100BFE00C6071200970806081100A9081808080071
:100C0E00BA0829080900C20831080B00CB083A08B7
:100C1E000900D60806070900DF080F071100E808CB
:100C2E0018070B00F9083A081000040945080400DB
:100C3E000A001E0613000F0F76081C00240F8A08E8
:100C4E000D00400FA6085B004E0FB4081500A90F4B
:100C5E0010091400E30A26090E0014097709100082
:100C6E00220985090B00320995090E003D09A009DC
:100C7E0010004B09B80908005B09C8090A0063098E
:100C8E00D00910006D09B80910007D09DA091000AD
:100C9E008D09EA090D009D09FA090C00AA09070A37
:100CAE001100B609130A1100C709240A1100D80948
:100CBE00350A1100E909460A1100FA09570A01001E
:100CCE00BE0F6E0A0000F894EE27ECBBF1E0F5BF04
:100CDE00E5BFE0936C00F8E1F1BDE1BD8DE0A2E06F
:100CEE00BB27ED938A95E9F780E090E1A0E0B1E0B3
:100CFE00ED930197E9F7EAE7FAE085919591009770
:100D0E0061F0A591B59105901590BF01F001059088
:100D1E000D920197E1F7FB01F0CF8BBFEFEFEDBF27
:100D2E00E0E1EEBFC0E0D5E00C9499070E948B1E67
:100D3E00A0912D0BAF5FA0932D0BA33630F0ABE03F
:100D4E000E94500AE0E0E0932D0BA0912B0AA436EE
:100D5E0011F4DA9A19C0A0912B0AA130A0F0A0913B
:100D6E002C0BAF5FA0932C0BE0912B0AAE1710F05B
:100D7E00DA9801C0DA9AA0912C0BA33618F0E0E0B5
:100D8E00E0932C0B04C0DA98E0E0E0932C0BAEE27B
:100D9E00BBE00E94991EE091300AF091310A319722
:100DAE00A0912E0BB0912F0BAE17BF0768F0E0E0AD
:100DBE00E0932E0BE0932F0BE0912C0AE03021F004
:100DCE00AEE2BAE00E94991EE0912C0AE03069F082
:100DDE00E0912D0AA0912E0BB0912F0BF0E0AE17E3
:100DEE00BF0710F4DB9A01C0DB988BC0EA93FA932D
:100DFE00EFB7EA931A930A931BB10CB1E12FEC7182
:100E0E0089F4E52D5394F0E0E05DF44F0083E8E0C3
:100E1E00E51509F455247394E8E0E71519F47724E1
:100E2E00689420F809911991E991EFBFF991E99130
:100E3E00189518950E948B1EE7ECEDBDE1EBECBD0D
:100E4E00A5E00E94320AE091380BEF5FE093380B79
:100E5E00A091380BAA3030F0AAE00E94320AE0E0EE
:100E6E00E093380BA0911F0AA43031F0A53021F089
:100E7E00A63011F0A830E1F4E091280AEF5FE0937C
:100E8E00280AA091280AAC3398F0E091290AEF5F66
:100E9E00E093290AE0E0E093280AA091290AAC33F6
:100EAE0038F0E093290AE0912A0AEF5FE0932A0ACC
:100EBE00A0911F0AA53011F0A630A9F4E091210AE5
:100ECE00E03021F4A3E2BAE00E94991EE091210ADB
:100EDE00E03021F4E091220AE03009F404C0A5E2EA
:100EEE00BAE00E94991E0DC00E948B1E6394EFE023
:100EFE006E1620F0A6E00E94320A6624A7E00E9439
:100F0E00320AE991EFBFF991E991B991A9919991BD
:100F1E00899179916991F99019900990189584B0F9
:100F2E0095B0189510E00E94FB16EFE7E1BFA8E020
:100F3E000E9468190E94BD0958D0AAE0B0E00E9434
:100F4E00C5230E949F1EA0E0B5E03CD1A1E1B5E013
:100F5E004CD10E94A41EAAE1B5E034D1ABE2B5E0BB
:100F6E0031D1ACE3B5E02ED1ADE4B5E02BD1AEE599
:100F7E00B5E028D1E0E0E1BF0E94A91E0E94A41EA8
:100F8E00AFE6B5E01FD1A0E8B5E01CD1A1E9B5E010
:100F9E0019D10E94AF1EE03041F40E94BB1EE091B9
:100FAE00270AFF276627772706C00E94BB1EE0E0B0
:100FBE00F0E060E070E00E9481260E94C41EE1E035
:100FCE000E94C91E0E94CD1E0E94A91E0E94F015ED
:100FDE000E943F1578940E94140A1E2F103019F0AB
:100FEE00A12F0E946B0AF7CFFFCFE4B3EF60E4BBF3
:100FFE00A998A898A4E1B0E00E94C523A89AE0E0C1
:10100E00EA93A2EE0E94D11EAAE30E94D11EAFEE79
:10101E000E94D11EA4E00E94D11EA0ED0E94D11EFE
:10102E00A0E20E94D11EA0E90E94D11EA4EA0E9455
:10103E00D11EAFE20E94D11EA0E40E94D11EA0EBF1
:10104E000E94D11EA0E10E94D11EA0E00E94D11EDE
:10105E00A8EC0E94D11EACEA0E94D11EA7E00E940D
:10106E00D11EAFEA24D001D008951A930A93E0E07E
:10107E00EA93A0E40E94D11EA0EB0E94D11EA0E133
:10108E000E94D11EA0E013D0E0E0E093900EE0931A
:10109E00910E00E010E00038E9E11E0728F40E94EE
:1010AE00D61E0F5F1F4FF7CF099119910895AA937E
:1010BE001A93A998AB98EA81E03041F1E091900E35
:1010CE00A9E0EA9FF001E75CF44FDF01E091910E99
:1010DE000E94DB1EA981A083E091900EEF5FE0934A
:1010EE00900EA091900EA03640F0E0E0E093900EAE
:1010FE00E091910EEF5FE093910EA091910EA930C9
:10110E0018F0E0E0E093910EAA9A01C0AA98AB9A6B
:10111E0010E0183080F4AB98E981E07811F0AA9ACB
:10112E0001C0AA98AB9AE981EE0FE9838AE08A950D
:10113E00F1F71F5FEECFA99A1881D8C1AA931A931F
:10114E00A981A03818F0E981E054E98310E0153048
:10115E0040F4E1E0EA930E94DF1EA491A8DF1F5F36
:10116E00F6CF0E94D61E188171C0AA931A93A98138
:10117E00A03818F0E981E054E98310E0153080F4CE
:10118E0021970E94DF1EE491E883E1E0EA93A981B2
:10119E008EDFE1E0EA93A9818ADF21961F5FEECF11
:1011AE000E94D61E188152C0BA93AA93A881B98103
:1011BE00EC91E03031F0ED91A883B983AE2FBEDF14
:1011CE00F5CF44C0BA93AA931A93A981BA81EC9130
:1011DE001E2F103041F0A12FB1DFE981FA81319637
:1011EE00E983FA83F2CF188181C1BA93AA931A9335
:1011FE00A981BA81EC911E2F103041F0A12FB5DFDD
:10120E00E981FA813196E983FA83F2CF18816EC1B2
:10121E00AA93E981A6E0EA02F001E983E093900E39
:10122E00E881E093910EE0E0EA93E981EF70E06BE4
:10123E00AE2F0E94D11EEA81EF70AE2F0E94D11EFA
:10124E00EA81E295E770E061AE2F31DF22960895D4
:10125E00AA93A091A50EA83098F4E091A30E0E9437
:10126E00EB1EA881A083E091A50EEF5FE093A50E83
:10127E00E091A30EEF5FE093A30EE770E093A30E51
:10128E0021C11A9310E0E091A50EE03091F0E091AB
:10129E00A40E0E94EB1E1081E091A50EE150E0938A
:1012AE00A50EE091A40EEF5FE093A40EE770E0931D
:1012BE00A40EE12FCEC0AA931A930A93EB81E150AC
:1012CE00EB830E94EF1EE956F14F108100E00E9461
:1012DE00EF1EEE56F14FE081E093960EEC81E0307A
:1012EE0009F1A091960EA531E0F4E091960EEF5F14
:1012FE00E093960EA091960EA63038F010FD05C024
:10130E001160EA81E17009F001E0A091960EA5311D
:10131E0040F011FD06C01B7F1260EA81E27009F0F9
:10132E0002E00DC010FF02C011FF01C004C0EA812F
:10133E00E47009F003E0E0E0E093960E1C7F0030CD
:10134E0029F0AB81AF5F84DFA02F82DF0E94EF1EFA
:10135E00EE56F14FA091960EA0830E94EF1EE95615
:10136E00F14F108319810881259608951A9310E084
:10137E00143070F40E94F21EEE56F14FA0E0A083DE
:10138E000E94F21EE956F14FA0E0A0831F5FF0CF3E
:10139E0010E0183038F4E12F0E94EB1EA0E0A0837D
:1013AE001F5FF7CFE0E0E093A30EE093A40EE0936F
:1013BE00A50ED098D898D198D998D498DC98D5986D
:1013CE00DD9847C01A9310E0C89902C011E001C021
:1013DE0010E01A93E1E0EA93A3E06DDFC99902C031
:1013EE0011E001C010E01A93E2E0EA93A3E063DF9C
:1013FE00CC9902C011E001C010E01A93E3E0EA9329
:10140E00A1E059DFCD9902C011E001C010E01A939E
:10141E00E4E0EA93A1E04FDF1CC01A93A091C80E3E
:10142E00A130B0F00E94F51E1081E091C80EE1507F
:10143E00E093C80EE091C70EEF5FE093C70EA09148
:10144E00C70EA03219F4E0E0E093C70EE12F01C001
:10145E00E0E019910895AA93A091C80EA032C0F4AD
:10146E00E091C60EF0E0EA55F14FA881A083E0911D
:10147E00C60EEF5FE093C60EA091C60EA03219F411
:10148E00E0E0E093C60EE091C80EEF5FE093C80E69
:10149E0019C0AA93A091C80EA032A0F4E091C70E75
:1014AE00E03011F4EFE103C0E091C70EE150E0939C
:1014BE00C70E0E94F51EA881A083E091C80EEF5FB3
:1014CE00E093C80E21960895AA931A930A93EA817F
:1014DE00F0E03197A9ECBEE0EE0FFF1FAE0FBF1F7D
:1014EE000D911C91F8010995198108812396089593
:1014FE000E943C08A091140BAF3F11F0A03069F48C
:10150E000E949F1EA2EAB5E00E94E908A2EBB5E098
:10151E000E94E908A2ECB5E099C1A091240BAF3F5F
:10152E0021F0A091240BA03069F40E949F1EA2ED21
:10153E00B5E00E94E908A2EEB5E00E94E908A2EF2C
:10154E00B5E084C10E94AF1EA091270AA23088F494
:10155E000E949F1EA2E0B6E00E94E908A2E1B6E05A
:10156E000E94E908A2E2B6E00E94E908A2E3B6E012
:10157E006DC10E94FB1E69F00E949F1EA2E4B6E0A0
:10158E000E94E908A2E5B6E00E94E908A2E6B6E0EC
:10159E005DC10E940A1F69F00E949F1EA2E7B6E07D
:1015AE000E94E908A3E8B6E00E94E908A4E9B6E0C3
:1015BE004DC10E94191FE0E0F0E066E974E40E945C
:1015CE00211F87D2E0913C0AE0932B0ADB98E4E0DE
:1015DE0054C12797E0E2EB83E0E0EC83E0E2ED8399
:1015EE00E0E0EE83E091200AE030D9F00E942A1F5D
:1015FE00A5EAB6E00E94E9080E94A41EA6EBB6E09A
:10160E000E942F1FA3E00E940F09AFEBB6E00E94CD
:10161E002F1FA4E00E940F09A8ECB6E00E94E90873
:10162E0084C00E94341F0E94491F10F0EEE10BC0CF
:10163E000E94341F0E94501F19F010F00C94290BB9
:10164E00EFE101C0E0E2ED830E94571F0E94491FA7
:10165E0010F0EEE10BC00E94571F0E94501F19F0B0
:10166E0010F00C943C0BEFE101C0E0E2EB83E3E001
:10167E000E946C1FA9EDB6E00E94701F0E94751F9C
:10168E000E947D1F0E949B1F0E94A51FFE013B967C
:10169E000E94B41F0E94BD1FFE013D960E94B41F02
:1016AE00E0E00E94D51FE0910E0FAEECB3E00E9479
:1016BE00DD1FE9E6F7E0FA93EA93A0910D0FA13052
:1016CE0011F4EEE301C0E0E20E94EB1F0E94F11F55
:1016DE00A0910D0FA23011F4EEE301C0E0E20E94E2
:1016EE00EB1F0E94F81F0E94812680E10E94471D79
:1016FE0064960E94CD1EE0E0EA93A7E00E940120CE
:10170E00EEE7F7E0FA93EA93A0910D0FA03011F4F3
:10171E00EEE301C0E0E20E94EB1FE0912B0A0E9473
:10172E00EB1F0E9408200E94CD1E279608950E944E
:10173E003C08A091140BAF3F11F0A03069F40E9449
:10174E009F1EA5EEB6E00E94E908A5EFB6E00E9446
:10175E00E908A5E0B7E07AC0A0911C0BAF3F21F0DD
:10176E00A0911C0BA03069F40E949F1EA5E1B7E06A
:10177E000E94E908A5E2B7E00E94E908A5E3B7E0F8
:10178E0065C0A091240BAF3F21F0A091240BA03097
:10179E0069F40E949F1EA5E4B7E00E94E908A5E542
:1017AE00B7E00E94E908A5E6B7E050C00E94AF1E60
:1017BE00A091270AA33088F40E949F1EA5E7B7E0E8
:1017CE000E94E908A5E8B7E00E94E908A5E9B7E09C
:1017DE000E94E908A5EAB7E039C00E94FB1E69F035
:1017EE000E949F1EA5EBB7E00E94E908A5ECB7E0AA
:1017FE000E94E908A5EDB7E029C00E940A1F69F012
:10180E000E949F1EA5EEB7E00E94E908A6EFB7E082
:10181E000E94E908A7E0B8E019C00E940D20E8E098
:10182E00EA93E9E1EA93E3E2EA93AFE50E9429192C
:10183E00E030A9F00E949F1EA8E1B8E00E94E908DE
:10184E00A8E2B8E00E94E908A8E3B8E00E94E9081F
:10185E00A8E8B3E10E94C5230E94122008950E94B9
:10186E00191FE4E6E0932B0ADB980E9416200E94D3
:10187E001C20E0E0E093220AE5E0E0931F0A0895C1
:10188E006797E0E2E98BE0E0EA8BE0E2EB8BE0E0E9
:10189E00EC8BE0E2ED8BE0E0EE8BE091200AE030A5
:1018AE00F9F0E2E0EA93A1E00E940F09A8E4B8E0A3
:1018BE000E942320A2E00E940F09A5E5B8E00E9435
:1018CE002320A3E00E940F09AEE5B8E00E942F1F6F
:1018DE00A4E00E940F09A7E6B8E00E94E908ACC098
:1018EE000E94341F0E94491F10F0EEE10BC00E94AF
:1018FE00341F0E94501F19F010F00C94880CEFE169
:10190E0001C0E0E2ED8B0E9428200E94491F10F0DA
:10191E00EEE10BC00E9428200E94501F19F010F01B
:10192E000C949B0CEFE101C0E0E2E98B0E94571F83
:10193E000E94491F10F0EEE10BC00E94571F0E943B
:10194E00501F19F010F00C94AE0CEFE101C0E0E264
:10195E00EB8BE1E00E946C1FA8E7B8E00E94701FBD
:10196E00A1E00E9401200E947D1FE1E0EA930E9407
:10197E00751F0E94A51FFE017B960E94B41F0E9438
:10198E009B1FE5EBF7E0FA93EA930E943D200E943D
:10199E008126FE0179960E94B41F0E94BD1FFE0192
:1019AE007D960E94B41FE0E00E94C91EA6E8B8E032
:1019BE000E94E908E8E00E94C91E0E944620E7ED59
:1019CE00F7E0FA93EA93E0912B0A0E94EB1F0E9434
:1019DE00C41E0E94CD1EE1E00E94D51FE091220A96
:1019EE00ACE8B0E00E94DD1FE0EEF7E00E944B2075
:1019FE00E0910B0FF0910C0F0E94B41FE1E0EA93FF
:101A0E00A7E00E940F09E091220AE03049F00E94FF
:101A1E004620ECEEF7E0FA93EA930E94F81F06C018
:101A2E000E944620EAEFF7E00E9454200E94812691
:101A3E000E94C41E0E94CD1E679608952497E4E06E
:101A4E00E0932D0A0E941620E5E0F5E469EB72E4BE
:101A5E006BC02497E0915A0AE0932D0AA091FB0ED9
:101A6E00B091FC0E8091FD0E9091FE0EEAE9F9E91F
:101A7E0068EA72E40E94582508F1E091FB0EF0919D
:101A8E00FC0E6091FD0E7091FE0E0E945F200E9472
:101A9E00C524A0E0B0E085E794E40E946420DF0155
:101AAE00CB01E0E0F0E069E073E40E941325DF0172
:101ABE00CB010E9469200E94C52402C00E946920A9
:101ACE00E093070FF093080F6093090F70930A0FBE
:101ADE0001C02497E091070FF091080F6091090F54
:101AEE0070910A0FABEFBAEE8AE299EB0E94C52411
:101AFE000E9472200E94C5247F936F93FF93EF93F1
:101B0E000E94F81FAFECB7EF83E99FE30E94C52454
:101B1E00AF91BF918F919F910E947524A0E1B8E57E
:101B2E0089E99FE30E9475240E947C26E0912D0A8C
:101B3E00F0E00E947B200E9480207F936F93FF93A2
:101B4E00EF930E947726E0E0F0E061E675E40E94F4
:101B5E001325AF91BF918F919F910E941325A0E005
:101B6E00B0E088EC92E40E94C524A0E3BAE00E94A3
:101B7E000224ED93FC93249608950E943C08A091B4
:101B8E001F0AA43031F40E942A1FA7E9B8E00E9470
:101B9E00E908A0911F0AA53031F40E942A1FA9EA74
:101BAE00B8E00E94E908E1E00E948B20AAEBB8E0C1
:101BBE000E94FC08E1E00E948F20A2ECB8E00E9497
:101BCE00FC08EFE7E1BFE0E0E0931F0ADB98E0934B
:101BDE002B0AE093220AAA24E093200A22C0E4E60C
:101BEE00F0E0E093300AF093310AE4E0E0932D0A3E
:101BFE000E9416200E94191FE0E0E093200AE8E000
:101C0E00E0931F0A0E9493200E948020A0E0B0E083
:101C1E0088E492E40E949B20E093050FF093060F58
:101C2E00E1E0E0932C0A0895E091360AF091370A2C
:101C3E000E94A0207F936F93FF93EF93A0912D0AA4
:101C4E00BB27882799270E94A5200E94D8250E948D
:101C5E003B24AF91BF918F919F910E94AC200E9427
:101C6E000516E0E0E093200A0895E091200AE030A6
:101C7E00F9F0E3E0EA93A1E00E940F09ABECB8E0C3
:101C8E000E942320A2E00E940F09A6EDB8E00E9458
:101C9E002320A3E00E940F09AFEDB8E00E942F1F92
:101CAE00A4E00E940F09A8EEB8E00E94E9086BC0FC
:101CBE00E091050FF091060FA0912E0AB0912F0A18
:101CCE00AE17BF07E0F00E94B720E2E3F0E0E0932A
:101CDE00360AF093370AEDE00E94BC20A091360A36
:101CEE00B091370AA083B1830E94C420EBE0E09349
:101CFE00F90A0E943C08E9E0E0931F0A44C0E3E0C1
:101D0E000E946C1FA9EFB8E00E94701FA1E00E9414
:101D1E0001200E947D1FE1E00E948B20A4E0B9E02B
:101D2E000E94E908E3E0EA93A4E00E940120E5E5C1
:101D3E00F8E00E9454200E94D0200E94CD1EE3E0C5
:101D4E000E94C91E0E944620E0E6F8E0FA93EA934C
:101D5E00E091320AF091330A6091340A7091350A9B
:101D6E000E94D0200E94CD1EE3E0EA93A6E00E94DE
:101D7E000120EBE6F8E0FA93EA930E94A5200E9478
:101D8E00D0200E94CD1E08950E94D320E530A0E001
:101D9E00FA0769F4E091220AE03049F0EB2D0E9437
:101DAE00D7200E94DD200E9413250E94E620089570
:101DBE000E94D320E430A0E0FA0749F40E94FA20F2
:101DCE000E940B210E940D200E942B2134C0E53071
:101DDE00A0E0FA0781F50E94FA200E943D20E093D0
:101DEE00EF0EF093F00E6093F10E7093F20E0E94D0
:101DFE000B21ECE1FBE0FA93EA93A8E00E94C318F2
:101E0E00E093E30EF093E40E6093E50E7093E60E0E
:101E1E000E940D200E942B210E9437210E94DD205E
:101E2E000E947524E093FF0EF093000F6093010F54
:101E3E007093020FB394A8E00E94B91808950E94FF
:101E4E00D320E430A0E0FA0779F5E091380AF0915A
:101E5E00390A60913A0A70913B0A0E9440210E9411
:101E6E00582540F4A091250AB091260AA03BE4E043
:101E7E00BE0708F082DEE0910E0F0E94492119F490
:101E8E000E94B72010C0E130A0E0FA0721F4E1E093
:101E9E00E0932C0A08C0E230A0E0FA0721F4E0E05B
:101EAE00E0932C0ADB9A26C1E530A0E0FA0711F088
:101EBE000C9475100E944021E0E0F0E060E772E4BF
:101ECE000E94582509F010F40C94C20FE0913E0ABE
:101EDE00E0932B0AA091E70EB091E80E8091E90EE7
:101EEE009091EA0EE091F30EF091F40E6091F50EE2
:101EFE007091F60E0E946E24DF01CB010E947B1DB5
:101F0E00DF01CB01E0E0F0E060E87EE30E945825BF
:101F1E0019F010F00C94A70FE091220AE03081F432
:101F2E000E944021E0E0F0E066E972E40E9458254C
:101F3E0009F010F40C94A70FE0912C0AE03009F090
:101F4E0015C0A091030FB091040FA835E2E0BE07B3
:101F5E0010F0DD2009F005C0E1E0DE2EEFE7E1BF75
:101F6E0004C0A3E0BFE00E94991E05C0E0E0E0932C
:101F7E00030FE093040FE091220AE03049F40E942F
:101F8E004C21DF01CB010E9493200E94522109C0F7
:101F9E00E0E0E093F70EE093F80EE093F90EE09395
:101FAE00FA0EE091560AF091570A0E94A020A091D5
:101FBE00F70EB091F80E8091F90E9091FA0E0E94E4
:101FCE00582540F0E091220AE03021F4E0912C0AED
:101FDE00E03009F402C00E94B720E091220AE030FE
:101FEE0011F40C946510E091420AF091430A60914D
:101FFE00440A7091450AA091460AB091470A809111
:10200E00480A9091490A0E9475240E945D210E94FF
:10201E00582508F1E0E0E093230AE093240ADB98C8
:10202E00E0932C0AE093210ACC20A1F4E1E0CE2E1D
:10203E00ABE0BFE00E94991E0E946920ACEEB1E5B4
:10204E0088E79FE30E94C5240E940424E093580A67
:10205E00F093590A33C0E0E0E093250AE093260A94
:10206E00E091210AE03029F0E1E0E0932C0ACC2443
:10207E0025C0E0914E0AF0914F0A6091500A70917E
:10208E00510A0E9440210E94582509F010F40C9428
:10209E005B10A0914C0AB0914D0A0E94662118F077
:1020AE00E1E0E093210A0AC0A0914A0AB0914B0ADE
:1020BE000E94662118F0E1E0E093210AE091520AB5
:1020CE00F091530A6091540A7091550A0E94402172
:1020DE000E94582510F051DD08950CC0E830A0E0A4
:1020EE00FA0741F40E944C21DF01CB010E9493209C
:1020FE000E94522108950E94D320E130A0E0FA07F9
:10210E0011F40FD320C0E230A0E0FA07D1F0E63090
:10211E00A0E0FA07B1F0E430A0E0FA0711F459DAC2
:10212E0012C0E530A0E0FA0711F4AADB0CC0E830CB
:10213E00A0E0FA0711F499DD06C0E930A0E0FA0735
:10214E0011F40E94A81408951A930A930E94E909A3
:10215E000E9448091E2F1030E1F10E9448090E2FEF
:10216E00013041F50E94F21EE130A0E0FA0729F499
:10217E00A2E00E94320AE4E61AC0E230A0E0FA07BA
:10218E0029F4A1E00E94320AE5E711C0E330A0E095
:10219E00FA0729F4A3E00E94320AE5E608C0E4300B
:1021AE00A0E0FA0731F4A4E00E94320AE2E6E093DE
:1021BE00F70A0FC00E94F21EE130A0E0FA0711F4F8
:1021CE00A9E005C0E230A0E0FA0719F4A8E00E94E9
:1021DE00320A0991199108950E94D320E130A0E0AE
:1021EE00FA0781F40E9470210E947821AE0FBF1F62
:1021FE001296ED91FD910995A0911F0AA13009F457
:10220E0090D2A7C0E230A0E0FA0739F40E943F1541
:10221E000E9405160E9488219CC0E330A0E0FA07B8
:10222E0029F40E9482160E94882193C0309731F4BF
:10223E00E1E0E0931F0AE0E0E1BF88C0E430A0E0F7
:10224E00FA07B1F4E091200AE03019F00E948E21D5
:10225E000EC0E0910D0FEF5FE0930D0FA0910D0FEB
:10226E00BB27E3E0F0E00E943426E0930D0F71C02F
:10227E00E530A0E0FA0729F5E091200AE03019F0E8
:10228E000E948E211DC00E943C08E6E0E0931F0ACA
:10229E00E4E00E94BC20FF93EF930E945D210E9418
:1022AE0096210E94C524AF91BF910E940224ED9306
:1022BE00FC930E94C420E2E0E093F90A0E94A81465
:1022CE0048C0E630A0E0FA07C9F40E943F150E940C
:1022DE0005160E949B21E093220A0E941C200E9458
:1022EE001620E1E0E0932C0A0E9437210E94E6209E
:1022FE000E943C08E5E0E0931F0A2BC0E730A0E007
:10230E00FA0729F40E943C086ADCAFDC22C0E830F0
:10231E00A0E0FA0781F4E091200AE03059F0DB9852
:10232E00E0E0E0932C0AE093200AE1E0E0931F0A3C
:10233E000E9412200EC0E930A0E0FA0751F40E946C
:10234E003F1572DC0E949B21E0931F0A0E943C08FD
:10235E00E8D108950E94D320E230A0E0FA0719F4E4
:10236E000E94882154C0E330A0E0FA0719F40E94BD
:10237E0088214DC0E130A0E0FA0771F4E091F80A2F
:10238E00E03011F0ABD106C0E091F80AE03019F45C
:10239E000E943C08C6D13BC0309741F4E1E0E09387
:1023AE001F0AE0E0E1BF0E94122031C0E430A0E03D
:1023BE00FA0749F1E530A0E0FA0779F4DD2041F0A3
:1023CE00E0E0E1BFDD24E093030FE093040F04C0CF
:1023DE00E091200A0E94A5211AC0E630A0E0FA077B
:1023EE0071F4E091FA0AE093F80AE091FB0AE093A7
:1023FE00F90A0E943C08E5E0E0931F0A08C0E830A5
:10240E00A0E0FA0721F4E091200A0E94A521089588
:10241E000E94D320E130A0E0FA0789F4A091F90AD6
:10242E00A03029F40E9470210E94AB2102C0E091DD
:10243E00F90AE150E093F90A0E94122052C0E230EC
:10244E00A0E0FA0709F449C0E630A0E0FA0709F463
:10245E0044C0E430A0E0FA0791F50E94B02159F48F
:10246E00E0912B0AEF5F0E94B321A53618F0E4E647
:10247E00E0932B0A23C0E130A0E0FA0779F4E09153
:10248E000E0FEF5FE0930E0FA0910E0FBB27E3E050
:10249E00F0E00E943426E0930E0F10C0E230A0E070
:1024AE00FA0761F40E94B82140F40E94F81F0E94BE
:1024BE005F200E9475240E94211F0BDB12C0E530A5
:1024CE00A0E0FA0731F4E091220AE03009F4DB9A39
:1024DE0008C0E930A0E0FA0721F40E943C080E94EF
:1024EE001D1408950E94D320E130A0E0FA07B1F444
:1024FE000E9470210E94AB21F0E03197A091F90A61
:10250E00B0E0AE17BF0714F0E0E003C0E091F90AA7
:10251E00EF5FE093F90A0E94122055C0E230A0E06E
:10252E00FA0709F44CC0E630A0E0FA0709F447C0F8
:10253E00E430A0E0FA07A9F50E94B02159F4E09129
:10254E002B0AE1500E94B321A13018F4E1E0E09390
:10255E002B0A26C0E130A0E0FA0761F4A0910E0F1D
:10256E00A13020F0E0910E0FE15001C0E2E0E093C7
:10257E000E0F16C0E230A0E0FA0791F40E9472200E
:10258E00E0E0F0E060EA71E40E94582540F00E941D
:10259E00F81F0E945F200E946E240E94211F99DA6C
:1025AE0012C0E530A0E0FA0731F4E091220AE030E3
:1025BE0009F4DB9808C0E930A0E0FA0721F40E9484
:1025CE003C080E94331408950E94D320E230A0E00C
:1025DE00FA07B1F1E630A0E0FA0791F1E530A0E09C
:1025EE00FA0749F4E091220AE03021F427DAE1E01B
:1025FE00E0932C0A2BC0E430A0E0FA07E9F40E9425
:10260E00B02159F4E0912B0AEC5F0E94B321A5365C
:10261E0018F0E4E6E0932B0A0EC0E230A0E0FA07D1
:10262E0051F40E94B82130F40E94C0210E947524FA
:10263E000E94211F4EDA0AC0E930A0E0FA0731F4F9
:10264E000E943C080E9433140E944B1408950E946D
:10265E00D320E230A0E0FA07D1F1E630A0E0FA078D
:10266E00B1F1E530A0E0FA0749F4E091220AE0303A
:10267E0009F4DB98E0E0E0932C0A2FC0E430A0E0F0
:10268E00FA0709F50E94B02159F4E0912B0AE450A3
:10269E000E94B321A53018F4E1E0E0932B0A12C09A
:1026AE00E230A0E0FA0771F40E9472200E94962197
:1026BE000E94582530F00E94C0210E946E240E9474
:1026CE00211F07DA0AC0E930A0E0FA0731F40E94B0
:1026DE003C080E941D140E9463140895E091F70AAD
:1026EE00F0E0E536A0E0FA0741F40E9470210E9466
:1026FE007821AE0FBF1F14960BC0E236A0E0FA078A
:10270E0051F40E9470210E947821AE0FBF1F1596C2
:10271E00EC91E093F80A0E943C08E0E0E093F90A9D
:10272E00089561970E94D926E091F80AE03091F061
:10273E000E94C6210E9478210E94CB21EAE3F9E093
:10274E000E94DE210E94E521A7E0B0E0AE1BBF0B88
:10275E00AA930CC00E944620EFE3F9E0FA93EA93A5
:10276E0080E00E94471D2496E3E0EA93A1E00E94D8
:10277E00EC2155E022E00E947021AE0FBF1F119692
:10278E00AC91E52F0E94EF21B4F40E94F621AE1B0E
:10279E00BF0B0E94D52664F40E94F6210E9491265A
:1027AE00EA1BFB0B0E2F0E94FF2131963E2F02C01B
:1027BE0000E0352F07C00E947021AE0FBF1F11968B
:1027CE003C9100E0102F131754F5E091F90AA12F58
:1027DE00B0E0A7FDBFEFF0E0EA17FB0761F40E943F
:1027EE00C6210E9403220E940A22E8E4F9E00E9418
:1027FE00DE21E0E00BC00E94C6210E9403220E944F
:10280E000A22EDE4F9E00E94DE21E1E0EA93A22F34
:10281E002F5F0E940F090E94CD1E1F5FD4CFEBE6E3
:10282E00E093F70A0E94E026679608950E94182208
:10283E00E45AF54FDF010E94991EBF01F001E05AE4
:10284E00F54FDF010E941E2230F40E9418220E94D2
:10285E0023220E94282208950E9418220E943022CC
:10286E00A25AB54F0E941E2240F40E9418220E94C6
:10287E0036223197FE93EE9306C00E9418220E94D4
:10288E0023220E943C2208950E9418220E94362282
:10289E00EC59FF4FFE93EE930E9418220E943022B5
:1028AE00A05AB54F0E941E2230F40E9418220E9498
:1028BE0023220E94282208950E9418220E9430226C
:1028CE00A25AB54F0E946526EC59FF4FE617F7073F
:1028DE0048F40E9418220E943622E456F040FE93DD
:1028EE00EE9306C00E9418220E9423220E943C22D0
:1028FE0008951A93E2E00E944422E0E0E0935B0A1E
:10290E0011E0E091F80A1E1790F400905B0A112472
:10291E00E12FA3EEBAE0F0E00E948C250E94AB21DD
:10292E00F0E0E00DF11DE0935B0A1F5FEACFA0918E
:10293E005B0ABB27E091F90A0E94DB1EE0935B0A5B
:10294E0037C261970E9448220E9478210E94CB21B3
:10295E00E0E5F9E00E944B200E94C41E0E94E52192
:10296E000E944C22A1E00E94EC210E9448220E946B
:10297E0078210E945222E5E5F9E00E944B200E9448
:10298E00C41E0E94E5210E944C22A2E00E94EC216E
:10299E000E941822EC59F54FA081A33089F40E94B1
:1029AE005A220E945E22EAE5F9E00E946E220E94FF
:1029BE0071220E947A220E947F220E9408204FC01C
:1029CE000E941822EC59F54FA081A23089F40E9482
:1029DE005A220E945E22E3E6F9E00E946E220E94D5
:1029EE0071220E9496210E947F220E94082037C0E9
:1029FE000E941822EC59F54FA081A13099F40E9443
:102A0E005A220E945E22ECE6F9E00E946E220E949B
:102A1E008422662777270E9481260E94F11F0E943A
:102A2E0008201DC00E941822EC59F54FE081E030BD
:102A3E00B1F40E945A220E948422ACE8B0E0EE0F5C
:102A4E00FF1FEA0FFB1F0E946F260E94FD190E94B6
:102A5E004620E2E7F9E00E944B200E94C41E0E942D
:102A6E00E521A7E0B0E0AE1BBF0BAA93A4E03DC1E9
:102A7E001A930A93E0915C0AF0915D0A0E948A22F1
:102A8E00E093380AF093390A60933A0A70933B0A3E
:102A9E00E091650AF091660AE0933C0AF0933D0AD4
:102AAE00E0916E0AF0916F0AE0933E0AF0933F0AAE
:102ABE00E091770AF091780AE093400AF093410A88
:102ACE00E091800AF091810A0E948A22E093420AE4
:102ADE00F093430A6093440A7093450AE091890A81
:102AEE00F0918A0A0E948A22E093460AF093470ADE
:102AFE006093480A7093490AE091920AF091930A02
:102B0E00E0934A0AF0934B0AE0919B0AF0919C0ADB
:102B1E00E0934C0AF0934D0AE091A40AF091A50AB5
:102B2E000E948A22E0934E0AF0934F0A6093500A55
:102B3E007093510AE091AD0AF091AE0A0E948A227A
:102B4E00E093520AF093530A6093540A7093550A15
:102B5E00E091B60AF091B70AE093560AF093570A3D
:102B6E00E091BF0AF091C00AE093580AF093590A17
:102B7E00E091C80AE0935A0AE091D10AF091D20A84
:102B8E00E093360AF093370A0E94912210E0133038
:102B9E00E8F400E00830C0F40E94F21E0E948A257C
:102BAE00BF01EC5EF44FDF01E02F0E94DB1E0F0130
:102BBE00DB01A957BF4FEE27A00FBE1F0E9498261C
:102BCE00D001EC930F5FE6CF1F5FE1CF0991199112
:102BDE0008951A9310E01F3070F4A9E01A9FF001C7
:102BEE000E942322FD01E050F040DB0189E00E94AB
:102BFE00BD261F5FF0CF0E949122DAC01A93A091DA
:102C0E00320AB091330A8091340A9091350A0E94AB
:102C1E007A220E94C5240E940224E093DA0AF093DD
:102C2E00DB0A10E01F3078F4A9E01A9FF001DF01F3
:102C3E00E050F040BF01FD010E948422DB010E94A2
:102C4E00A4261F5FEFCFB4C06197E3E00E94442239
:102C5E00E1E00E946C1FA4E1B9E00E94E9080E9425
:102C6E0048220E9478210E945222E0E6F9E00E945A
:102C7E004B200E94C41E0E94E5210E944C22A1E01E
:102C8E000E94EC210E94A41EA2E2B9E00E94E90873
:102C9E00E3E00E948B20A2E3B9E00E94E908E2E0A3
:102CAE000E948F20ADE3B9E00E94E9080E94462001
:102CBE00EEEAF9E0FA93EA930E94FF210E948A2538
:102CCE00E65EF44FE0810E94EB1F0E94FF210E94FE
:102CDE008A25E55EF44FE0810E94EB1F0E940820DA
:102CEE000E94E5210E944C22A5E00E940F090E943D
:102CFE00CD1E619608951A930E943C080E94AF1E45
:102D0E00E030A1F510E0193098F40E94FF210E94E6
:102D1E008A25E957FF4FDF01EE27A10FBE1F0E9444
:102D2E00F21EE450F54FE0810E94AC261F5FEBCF00
:102D3E009FDE0E94A41EABE4B9E00E94E908E3E026
:102D4E000E948B20ABE5B9E00E94E908E2E00E9408
:102D5E008F20A3E6B9E00E94E9088ADEA0EDB7E075
:102D6E000E94C523E1E0E0931F0A22C00E94A41E28
:102D7E00ADE6B9E00E942F1FA3E00E940F09ADE758
:102D8E00B9E00E942F1FA4E00E940F09ADE8B9E040
:102D9E000E94E908E0E00E94C91EADE9B9E00E9478
:102DAE002F1FA6E00E940F09AAEAB9E00E94E908C7
:102DBE0019910895E7E00E9444220E942A1FA6EB73
:102DCE00B9E00E94E908A7ECB9E00E94E908A8ED75
:102DDE00B9E00E94E908A9EEB9E00E94E908AAEF5D
:102DEE00B9E00E94E9080895E0E0EBBBECE0EABB35
:102DFE00E0E0E8BBE0E1E7BBE0E0E5BBE4BBE2BB63
:102E0E00E0E8E1BBE0E0E3B9E2B9E0936200E09311
:102E1E006100E0936500E0936400E0BFE3E6E3BF8A
:102E2E00E0E0E2BFE1BFEFBDE5E0EEBDE7ECEDBDFA
:102E3E00E1EBECBDE0E0E7BDE6BDEBBDEABDE9BD13
:102E4E00E8BDE0937900E0937800E5E0E5BDE0E0D1
:102E5E00E4BDE3BDE0938B00E0938A00E09389002C
:102E6E00E0938800E0938100E0938000E093870078
:102E7E00E0938600E0938500E0938400E093830066
:102E8E00E0938200E0E3E0936A00E0E0EABFE4E072
:102E9E00E9BFE8BFE5E4E7BFE0E0E0937D00EBB912
:102EAE00E8E9EAB9E6E0E0939500E0E0E09390000F
:102EBE00EFE5E9B9E0E0E0939A00E0E8E8B9E0E098
:102ECE00E0BDE0E4E7B9ECE8E6B9E0E0EDB9E093A7
:102EDE007400DB98DA980895AA931A930A9318E06F
:102EEE001130C0F0EB81AA81AE27E1E0EA230E2F6C
:102EFE00003019F4EA81E69507C0AA81E8E1EA27D5
:102F0E00EA83E695EA83E068EA83EB81E695EB8354
:102F1E001150E6CFEA811981088167C0BA93AA934E
:102F2E001A930A9300E010E0173070F4AA81BB8167
:102F3E00EC91EA93A02FD0DF0E2FEA81FB81319620
:102F4E00EA83FB831F5FF0CFAA81BB81EC91E01770
:102F5E0021F4E0E01981088148C0E1E0198108817F
:102F6E0044C0AA931A930A9300E0083078F4EB81D8
:102F7E00E1701E2F103019F0AA81AED102C0AA81C5
:102F8E00C2D1EB81E695EB830F5FEFCF19810881FC
:102F9E002CC0AA931A930A9310E000E0083040F474
:102FAE001695AA81CAD1E03009F010680F5FF6CFEE
:102FBE00E12F0C94E719AA93ECECEA93A981D1DFE7
:102FCE0089C1AA931A9318E0E5E5EA93AA81C9DFAD
:102FDE00113050F0AA81BB81ED91AA83BB83EA9395
:102FEE00AA81BFDF1150F4CF188124960895AA93B9
:102FFE000E94D92611E000E031E0E0EFEA93AF81C4
:10300E00B0DF113410F00C945118AE8196D12E2FE2
:10301E00AE8193D15E2F203011F0503009F403C0F1
:10302E000FEFEFEF38C0E52FE22759F0203029F0EF
:10303E00A885B985EC91E32B02C00E949A22EC93ED
:10304E0017C0EF81E11731F4A885B985EC91E32B18
:10305E00EC930EC0EF81E11728F40E949A22EC93B4
:10306E00012F06C0A885B985EC91E32309F4012F41
:10307E00A885B985EC91E32319F0AE812DD102C05C
:10308E00AE8141D11F5F330F303019F431E00E9411
:10309E00A322B7CFE02F0E94E0262A960895BA9376
:1030AE00AA932397E0E0E8830E94D92610E0EC85EE
:1030BE001E1788F400E0083060F40E94F21E0E9491
:1030CE00A922AE0FBF1FEE27A00FBE1FEC930F5FFE
:1030DE00F2CF1F5FECCFE0E0EF832D853E85E887D2
:1030EE00A901A985BA85EC933A932A935A934A93E8
:1030FE00A8E0B0E00E94EB19AB8541D1E03011F4AD
:10310E00EFEF2CC03A932A93EA85EA93AE856FDFF0
:10311E00E887A901EF81EF5FEF83F0E00E94A9221B
:10312E00EA0FFB1F9F01E885E030F1F610E0EF811A
:10313E001E1798F40E94F21E0E94A922AE0FBF1F06
:10314E00EDDEE03019F0E1E0EE8305C0A985BA8529
:10315E00EC91EF5FEC931F5FEACFEE810E94E026C9
:10316E002F960895AA93A8810AD1A88124DFE4E4BA
:10317E00EA93A981F6DEAEC0AA932D970E94DB26B4
:10318E0000E010E020E030E0A989F9D0EA89FB895F
:10319E00FA93EA93AB8915DFEEEBEA93AA89E1DEA7
:1031AE00A989F7DEEC83A989F4DEED83E07889F056
:1031BE00E0E0FD81DF01EC81F0E0EA2BFB2B8F01DB
:1031CE00F801E095F09531968F010C831D8321E077
:1031DE0030E0EC81F0E00E949125DF01ED81E77097
:1031EE00F0E00E948825EA2BFB2B0E947B200E9498
:1031FE00AE22EC81EF700E94D720A0E0B0E080E814
:10320E009DE30E94C524AD85BE858F8598890E9459
:10321E0075240E94AE22022E032A61F0AD85BE8572
:10322E008F859889E0E0F0E060E87FEB0E94C5248E
:10323E000E94AE22ED85FE856F8578890E94E2267A
:10324E0064960895AA9329971A930E94B322EEE4E6
:10325E000E94BD22EB850E94BD22EC850E94BD22FC
:10326E00EA850E94BD220E94B322EEEB0E94BD228F
:10327E0010E0183078F40E94F21EDE011196EA0F6B
:10328E00FB1FFF93EF93AD8584DEAF91BF91EC935F
:10329E001F5FEFCFEB85AB810E94EF2149F4EC85E8
:1032AE00AC810E94EF2121F4EA85AD81EA1709F085
:1032BE0004C0E0E018810C94291BE0E118810C9405
:1032CE00291BAA93E1B3AE2FE8810E94C122E881A7
:1032DE000E94C72221960895AA931A931FB7F894B5
:1032EE000E94CF2289E18A95F1F7E1B3AE2FE981F1
:1032FE000E94C122E981E095EA23E2BB83EF90E0D0
:10330E000197F1F716C0AA931A931FB7F8940E946B
:10331E00CF2285EE90E00197F1F7E1B3AE2FE98170
:10332E000E94C122E981E095EA23E2BB8CE28A95F4
:10333E00F1F71FBF188122960895AA931A930A9344
:10334E001FB7F8940E94DA22E095EA23E2BB89E1E6
:10335E008A95F1F7E1B3AE2FEA810E94C122EA818C
:10336E00E095EA23E2BB87E28A95F1F7E0B3AA8102
:10337E00EA230E2F82ED90E00197F1F71FC0AA937A
:10338E001A930A931FB7F8940E94DA220E94C7225A
:10339E00E1B3AE2FEA810E94C122EA81E095EA23D1
:1033AE00E2BB89E091E00197F1F7E0B3E095AA81E5
:1033BE00EA230E2F81E396E00197F1F71FBFE02F6E
:1033CE001981088123960895BA93AA9399818881C9
:1033DE00009641F0BD81AC81FB81EA8161916D93D4
:1033EE000197E1F7FD81EC8126960895BA93AA9391
:1033FE00E991F991A991B991CD0105900D92002015
:10340E00E1F7FC010895BA93AA93A991B991EE2719
:10341E00FF276D91662311F03196FBCF0895BA9375
:10342E00AA93AA27BB27E991F9910590002011F0E4
:10343E001196FBCFFD010895BA93AA931A930A939E
:10344E00AA81BB8112960E946526309729F1AA8126
:10345E00BB8114960E9465268F01309761F0023071
:10346E00E0E01E07C0F0F80131978F01AA81BB8101
:10347E001496ED93FC93AA81BB8112960E94991E1D
:10348E003197AC81A083AA81BB810E946526FF2360
:10349E0012F00E94991E06C0AA81BB81EFEFFFEFCA
:1034AE00ED93FC9319810881259608950E94E222DE
:1034BE00E0E8EA83EFE3EB830E94DB26EE85FF85EF
:1034CE00EF3FAFEFFA0749F4E885F985FA93EA93EF
:1034DE00A8E6BAE00E94FD19B3C0EF3FAFE7FA07C6
:1034EE0049F4E885F985FA93EA93A9E6BAE00E94D1
:1034FE00FD19A6C0AB85A73010F0E6E0EB871B8563
:10350E00E12F1150E03019F00E94E922F9CFEC853D
:10351E00FD856E857F850E94D12621F430E00E94C4
:10352E00E9222EC03B850E94F82209F010F40C947B
:10353E00AB1A0E94E9220E94F82228F00E9403236F
:10354E000E940823F8CF0DC00E94F82240F40E947A
:10355E0003230E9414230E941B233150F5CF0E9497
:10356E00E922EC85FD856E857F850E9420230E94D1
:10357E001B230E94F82220F00E9403230E9408239E
:10358E0010E0EB85E11780F1AC81BD818E819F81CA
:10359E000E9427230E942023DF01CB010E94741E6C
:1035AE00EC83FD836E837F830E9403230E949B2006
:1035BE000E2F0E942E230E9435230E94D720AC810D
:1035CE00BD818E819F810E94C5240E9403230E948B
:1035DE0064200E941B23E12F1F5FE03091F60E94B2
:1035EE002E23EEE2EC93CDCF0E94A3223197AA8533
:1035FE00A08330302CF43195A885B985EDE203C057
:10360E00A885B985EBE2EC930E94A3220E94A32227
:10361E003197BF01A32FEAE00E94EB25E05DDB01AD
:10362E00EC930E94A3223197BF01A32FEAE00E94E0
:10363E002826E05DDB01EC93A885B985E0E0EC93EC
:10364E000E94E22660960895BA93AA93EF97619727
:10365E000E94D92610E0FE01E85AFF4F0190F0813A
:10366E00E02DE887F987FE01EA5AFF4F0190F081BD
:10367E00E02DEE83FF83AE81BF81E0E0F0E0ED93BD
:10368E00FC93DE01A45ABF4F0E94991E3197E4911C
:10369E002E2FE03011F40C943E1DE12FE03039F462
:1036AE00253211F411E002C00E943A23DFC1E1304D
:1036BE00C1F4253219F40E943A23D7C112E0E0E09A
:1036CE00ED8B00E02D3211F401E0D0C12B3219F454
:1036DE00EBE2ED8BCBC1203219F4E0E2ED8BC6C1EB
:1036EE0002C0E23039F450E013E0203311F40068E8
:1036FE00BDC102C0E33091F4203310F02A3308F03C
:10370E0007C0AAE05A9F502DE22FE0535E0FAEC1C4
:10371E0040E02E3211F414E0A9C10FC0E43099F448
:10372E00203310F02A3308F008C00062AAE04A9F46
:10373E00402DE22FE0534E0F99C12C3619F4026042
:10374E0015E094C104C0E53011F00C943D1DE22F3C
:10375E00E33659F40E9441230E9448230E944123DC
:10376E00A481AA930E944F2380C1E53411F0E5365F
:10377E0009F404C0E63611F00C940B1CFE0176968B
:10378E00EE87FF870E9455230E9469260E945C23C4
:10379E000E946123AD85AA2322F0AD89AB3249F098
:1037AE0017C00E9463230E94CF230E945C23EDE288
:1037BE00ED8B07FF05C0ED89EA930E944F2308C0E9
:1037CE00EE85FF853196EE87FF873197AD89A08311
:1037DE0005FF46E0263651F40E9463230E9481269F
:1037EE004A93AB89BC890E94831D09C00E94632342
:1037FE000E9481264A932A93AC89BD8957DEFE0129
:10380E0076960E9468231EC0E33739F40E94612326
:10381E000E9470230E9468230EC0E037C1F40E94FC
:10382E0061230E947023EE87FF87AE85BF850E94BD
:10383E00161A1E2F08600F77403011F0411708F04E
:10384E0001C0142F40E0E0E0EC8B30E06EC0E436B7
:10385E0011F0E93611F4046002C0E537A1F4EAE094
:10386E00EC8B01FF08C0E0E0FAEC6AE97BE30E9412
:10387E0075231AE023C0E0E1F7E260E070E00E94F9
:10388E00752315E01BC0E83511F4086004C0E83755
:10389E0011F00C943C1DE0E1EC8B01FF08C0E0E060
:1038AE00F0E060E070E10E94752318E007C0E0E0F0
:1038BE00F0E160E070E00E94752314E0403011F0FA
:1038CE000F7701C041E001FF08C00E9461230E94F2
:1038DE00552314960E9469260FC002FF07C00E944E
:1038EE0061230E9470230E94A02506C00E946123BE
:1038FE000E94702366277727EA87FB876C877D8770
:10390E0002FF12C0AD85AA2342F40E9463230E94D7
:10391E0080250E945C23EDE2ED8BED89E03019F0FD
:10392E001F5F4F5F01C00B7F342F00FD14C01517B2
:10393E0010F4351708F00FC007FF08C002FF04C0CF
:10394E000B7F2D89115001C020E301C020E20E949F
:10395E003A235150ECCF141790F4006102FF06C0C9
:10396E000E947A2309F0515011504150E0E3EA933E
:10397E000E944F23503009F051504150ECCF312F5F
:10398E00EC89E030B9F43030A1F003FF06C0EE85CB
:10399E00FF852591EE87FF8705C0AE85BF852D91EA
:1039AE00AE87BF870E943A23503009F051503150F4
:1039BE00EACF51C00E948C230E9403262E2F2A305C
:1039CE0030F003FF02C0295C01C0295A01C0205DFE
:1039DE0004FD21C0213360F4A889B9898A899B89A5
:1039EE00A130E0E0BE07E0E08E07E0E09E0709F4BC
:1039FE000BC0431740F4531710F000FF01C010C066
:103A0E0020E207FF08C020E3006102FF04C00E940D
:103A1E007A2309F051500E943A23503009F0515048
:103A2E0031500E948C230E9442260E945C23EC8916
:103A3E00A889B9898A899B89FF27662777270E94DB
:103A4E0003260E947523E889F9896A897B890E9479
:103A5E00D12609F0AFCF00FF08C0503031F05150E1
:103A6E00E0E2EA930E944F23F8CF10E00ACEAE8137
:103A7E00BF810E9465260E94E026EF966F960895FC
:103A8E00FF92F82E26970E94DB260E9495233097F0
:103A9E0019F4EFEFFFEF23C0DE0116960E94782592
:103AAE008D010E949523EE83FF83E0E0E887E9878E
:103ABE00DE011A960E9478250E946526FA93EA93F3
:103ACE001A930A93E3E2FAE1FA93EA93DE011A9665
:103ADE00BBDD9F01AE81BF81E0E0EC93F9010E9456
:103AEE00E2262A96FF9008950E948626E991F99182
:103AFE00699179917F7708950E94E222E0E0EA834E
:103B0E00EFE3EB831A930A93EB85FC85EF3FAFEF60
:103B1E00FA0739F40E949C23A0E7BAE00E94FD192F
:103B2E00A7C0EF3FAFE7FA0739F40E949C23A1E745
:103B3E00BAE00E94FD199CC0AC85AA2362F4E98507
:103B4E00FA856B857C850E94CF230E94A1230E945B
:103B5E00A623EDE2EC93A885A73010F0E6E0E88707
:103B6E001885E12F1150E03039F00E94AD230E94EC
:103B7E0027230E94B223F5CF0E94B7230E947524FB
:103B8E000E94A12310E0E0E0F0E060E87FE30E94F5
:103B9E00B2230E94B7230E94582588F00E94AD23BD
:103BAE000E9414230E94B2231F5F173238F00E9426
:103BBE009C23A5E7BAE00E94FD195AC0EACF103047
:103BCE0029F40E94A623E0E3EC9327C0E12F1150C5
:103BDE00E03019F10E94AD230E9427230E9420237A
:103BEE00DF01CB010E94741E0E94B2230E94B723F4
:103BFE000E949B200E2F0E94A6230E943523F0E0E8
:103C0E000E94AD230E947B200E94C5240E94C023E7
:103C1E000E9464200E94A123D9CFE885E03021F1D3
:103C2E000E94A623EEE2EC93E885E150E887EF5F71
:103C3E00D9F00E94C0230E9414230E94A123E9857B
:103C4E00FA856B857C850E9402240E2F0E94A62386
:103C5E000E943523F0E00E94C0230E947B200E9428
:103C6E0064200E94A123E0CFAE81BF81E0E0EC93FF
:103C7E00198108812D9608950E9486267B816A817E
:103C8E00F981E88177FB770F67FD7160972F9E575B
:103C9E0081F078F0983190F4AA27BB2788270894F2
:103CAE008795B795A7959A95D1F7EA23FB236823B5
:103CBE0005C0E8947727EE27FF2766276F7776955E
:103CCE0008F4606877F9A991B99189919991EA17E9
:103CDE00FB076807790797FB08950E9486260E94C6
:103CEE0077260E94431E0E947C2619F40E9472269B
:103CFE0009C0E6F70E947226A0E0B0E080E89FE3DC
:103D0E000E946E24249608950A921A92FA926A9349
:103D1E007A938A939A93AA93BA93EA93FA93EFB704
:103D2E00EA930895ED91FD913196FE93EE930895E9
:103D3E00E0E0EA93A0E00C940F09E0E0EA93A2E041
:103D4E000C940F09A0EDB7E00E94C5230C943C081B
:103D5E00ECEFFAE0FA93EA93E3E0EA93E8E0EA9311
:103D6E00A7E2BAE00C945618EBE0FAE0FA93EA9365
:103D7E00E0E0F6E0FA93EA93089584E00E94471D8E
:103D8E0028960895EA93A5E00C940F09ABE0BAE0EB
:103D9E000C94DB080E945E08E0E0EA930895E1E0EF
:103DAE00EA93A0E00C945E08F0E0EA0FFB1F089582
:103DBE00EA81F0E07E97A5E0B0E00E94AA25E256E7
:103DCE00FF4FDF01E12FF0CFF0E0E556F14F089500
:103DDE00EB81F0E00895E12FF0E00895E091C70E39
:103DEE00F0E0EA55F14F0895E4E1FBE0FA93EA932F
:103DFE00E8E0EA93E9E1EA93E3E2EA93AFE50E94B1
:103E0E002919E0300895ECE1FBE0FA93EA93E8E03B
:103E1E00EA93E9E1EA93E3E2EA93AFE50E94291916
:103E2E00E0300895E0E0E093280AE093290AE09359
:103E3E002A0A0895E093070FF093080F6093090F75
:103E4E0070930A0F0895E0E0EA93A1E00C940F0935
:103E5E000E94E908E0E0EA930895A091EB0EB0917C
:103E6E00EC0E8091ED0E9091EE0EE091DF0EF09142
:103E7E00E00E6091E10E7091E20E0E946E24DF0161
:103E8E00CB010895E0E0F0E060E07EE30E9458256B
:103E9E000895E0E0F0E060E07EEB0E945825089582
:103EAE00A091F30EB091F40E8091F50E9091F60E56
:103EBE00E091E70EF091E80E6091E90E7091EA0E36
:103ECE000E946E24DF01CB010895EA93A0E00C94CA
:103EDE000F090E94E908E1E0EA930895A2E00E942A
:103EEE000F09EBE0FAE0FA93EA930895E5E3F7E0C1
:103EFE00FA93EA93E0912A0AFF27662777270E9412
:103F0E008126E091290AFF27662777270E948126BE
:103F1E00E091280AFF27662777270E9481268CE0EA
:103F2E000E94471D609632CFE1E0EA93A3E00E9423
:103F3E000F09EBE0FAE0FA93EA930895E7E4F7E06D
:103F4E00FA93EA93E091E70EF091E80E6091E90E94
:103F5E007091EA0E0E9481260895662777270E94A7
:103F6E00812688E00E94471D2C9610CFE1E0EA934F
:103F7E00A4E00E940F09EBE0FAE0FA93EA93E8E579
:103F8E00F7E0FA93EA93E091DF0EF091E00E609184
:103F9E00E10E7091E20E0E9481260895EA93A6E04A
:103FAE000E940F09FE01FA93EA930895F0E0EE0FD6
:103FBE00FF1FEA0FFB1F0E946F260E94FD19EBE008
:103FCE00FAE0FA93EA930895FF27662777270E946F
:103FDE0081260895FE013896662777270E9481264E
:103FEE000895E091070FF091080F6091090F7091FD
:103FFE000A0F08950E940F09EBE0FAE0FA93EA9394
:10400E00089588E00E94471D2C960895E4E2FBE097
:10401E00FA93EA9308950E943C080C949813E0E0FA
:10402E00E0932E0AE0932F0A0895E0E0E0930B0F41
:10403E00E0930C0FCC2408950E94E908E4E0EA9383
:10404E000895A091EF0EB091F00E8091F10E909127
:10405E00F20EE091E30EF091E40E6091E50E709198
:10406E00E60E0E946E24DF01CB010895E091E30E6F
:10407E00F091E40E6091E50E7091E60E0895EBE07E
:10408E00FAE0FA93EA930895FA93EA93FE013496CE
:10409E00662777270E9481260895FA93EA93E09186
:1040AE00F70EF091F80E6091F90E7091FA0E0895D8
:1040BE00A0E0B0E080E291E408950E948B260E9479
:1040CE006E240895E091580AF091590A66277727D1
:1040DE000E943B240895A091070FB091080F809184
:1040EE00090F90910A0F08950E94A0250E943B246B
:1040FE000895A091320AB091330A8091340A9091BA
:10410E00350A0E94C5240895EA93A3E00C940F0982
:10411E00EA93A4E00C940F09E0912D0AFF2766277D
:10412E0077270E943B2408950E9413250E940224A3
:10413E000895662777270E943B240895E0912E0A62
:10414E00F0912F0A6627772708950E941325E09392
:10415E00320AF093330A6093340A7093350A089545
:10416E00E0E0E0932C0ADB980895E0935B0AA9E067
:10417E00EA9FF001E45AF54F0895E091F80AE093B2
:10418E00FA0AE091F90AE093FB0AE2E0E093F80AFA
:10419E0008950E948126F1CDE0911F0AF0E0089566
:1041AE00FF27662777270E943B240895A091FF0ED4
:1041BE00B091000F8091010F9091020F0895E0933E
:1041CE00FB0EF093FC0E6093FD0E7093FE0EE0E07E
:1041DE00E093FF0EE093000FE093010FE093020FC8
:1041EE00BB240C94300DE091DF0EF091E00E609147
:1041FE00E10E7091E20EE093EB0EF093EC0E6093F5
:10420E00ED0E7093EE0E0895E091E70EF091E80E2C
:10421E006091E90E7091EA0EE093F30EF093F40EB6
:10422E006093F50E7093F60EE4E1FBE0FA93EA93D9
:10423E00A8E00E94C318E093DF0EF093E00E6093A7
:10424E00E10E7093E20E0895A8E00E94C318E09369
:10425E00E70EF093E80E6093E90E7093EA0E089560
:10426E00E091DF0EF091E00E6091E10E7091E20EA2
:10427E000895A091DF0EB091E00E8091E10E909125
:10428E00E20E0895F0E030970895E0912E0AF09135
:10429E002F0A4FDF2ECF0E94C524E093F70EF09326
:1042AE00F80E6093F90E7093FA0E0895A091E30E36
:1042BE00B091E40E8091E50E9091E60E0895ECE338
:1042CE000E94D225A091230AB091240AAE17BF07EF
:1042DE000895E091F80AA3EEBAE0F0E00E948C2572
:1042EE000895AE0FBF1F12960E946526DF01E09162
:1042FE00F90AF0E0BD01A7E0B0E00E94AA25DB01BB
:10430E0008950E943C08E1E0E0931F0A08950E9480
:10431E00C40DE0E0E1BFE1E0E0931F0A7CCEE0E0F7
:10432E00F0E068EC72E40895E091FA0AE093F80A7E
:10433E00E091FB0AE093F90AE1E008950E94A525B9
:10434E00E093200A0C943C08AE0FBF1F1196EC911F
:10435E000895E0910D0F96CFE0932B0AA0912B0AB2
:10436E000895B9DEE0E0F0E06AEF74E40E945825AB
:10437E00089537DEA0E0B0E084EB92E40895FE01EC
:10438E003696FA93EA93A5CFAE0FBF1F1696EC9111
:10439E00A7E0EA9FF001A091E50AB091E60AAE0F00
:1043AE00BF1F0E946526DF010E94FD1968CEFA9399
:1043BE00EA93FE013A9666277727EBCEABE0BAE09A
:1043CE000E940A1AF695E79508950E940F09DECC11
:1043DE00B0E0F0E0E7FDFFEFEA17FB070895A091CC
:1043EE00F90ABB27E52FF0E0E7FDFFEF31970895BF
:1043FE00E091F90AF0E00895AE0FBF1F12960E94E9
:10440E006526DF01E8CCBD01A7E0B0E00E94AA2539
:10441E00DB01AE0FBF1F0E946526DF010E94FD1952
:10442E002ECEE0915B0AA9E0EA9FF00108950E946A
:10443E006526E617F7070895DF01E45AF54FBF0129
:10444E000895A25AB54F0E946526DB01ED93FC93A9
:10445E000895DF01E45AF54F608171810895E45AA1
:10446E00F54FDF01ED91FD910895A05AB54F0E94D1
:10447E006526DB01ED93FC930895E0931F0A0C94DF
:10448E003C08FE01FA93EA9324CFA8E0B0E0AE1BFD
:10449E00BF0BAA930895AE0FBF1F0E946526DF01C2
:1044AE000E94FD19ECCDFE01FA93EA93BACFEE59B4
:1044BE00F54FDF010E946526A0E9B0E0EE0FFF1F69
:1044CE00EA0FFB1F0E946F260E94FD19D8CDFA93AA
:1044DE00EA93A7CFE45AF54FDF010E94652629DE45
:1044EE00DF01CB010895E0E0F0E46CE176E408959D
:1044FE000E9413250E9481266DCDE45AF54FDF01EF
:10450E000E946526089515DEDF01CB0108DF0E94AB
:10451E0013250895E091DA0AF091DB0A0ADEDF0135
:10452E00CB01E1DF12CEA885B9850A2EAC91E32F1F
:10453E00E095EA23A02D0895E885F9853196E88760
:10454E00F9870895AD85BE850E948A250895ED8769
:10455E00FE876F87788B0895AD850E94C619EE850C
:10456E00FF85FA93EA93AF850C94E817EA93AE852C
:10457E000C94B817E095EA23E1BBE2B3AE2F089591
:10458E00E095EA23E2BB82E497E00197F1F7089504
:10459E00E1B3A981EA2BE1BBE2B3AE2FE981E0954D
:1045AE00EA23E2BB0895E1B3AA81EA2BE1BBE2B3B1
:1045BE00AE2FEA810895BA93AA932497E0E0E88398
:1045CE00E9830895AC81BD818E819F81E0E0F0E0AA
:1045DE0060E271E40E94C524EC83FD836E837F83C9
:1045EE000895EC81FD816E817F81AC85BD858E85C0
:1045FE009F850E9458250895AC85BD858E859F8523
:10460E000895EDECFCEC6CEC7DE30E94C524EC8788
:10461E00FD876E877F873F5F0895E0E0F0E060E200
:10462E0071E40E94C5240895EC87FD876E877F870D
:10463E000895A0E0B0E080E09FE30E947524089505
:10464E00EDECFCEC6CEC7DE30E94C5240895A8858E
:10465E00B9851196A887B98711970895E02FE05D67
:10466E00EC93E02F08952A93AF81B885E985FA85FA
:10467E0009950895FE01E65AFF4F0190F081E02D55
:10468E0008953497DE01A65ABF4FED93FC9308951B
:10469E00AF81B885E985FA8509950895DE01A65A98
:1046AE00BF4F0D90BC91A02D0895EA87FB876C87B4
:1046BE007D870895DFDFE5CFEA85FB856C857D85F7
:1046CE000895EE87FF87AE85BF850E940A1A1E2FBA
:1046DE000895E4DF14960E9465260895E88BF98B01
:1046EE006A8B7B8B08950B7FED89EA93DE01A95AC5
:1046FE00BF4F0D90BC91A02DFE01E75AFF4F0190C8
:10470E00F081E02D099550300895E889F9896A897C
:10471E007B89AA85BB858C859D850895DE011C96B7
:10472E000E9478250E9465260895EE81FF81FA93F6
:10473E00EA930895E987FA876B877C870895AE819F
:10474E00BF811196AE83BF8311970895AA81BB8155
:10475E008C819D810895EA83FB836C837D8308950C
:10476E00EA81FB816C817D81A985BA858B859C85CB
:10477E000895A985BA858B859C850895109639F084
:10478E0086E69EE00197F1F7A8951197C9F708956F
:10479E0030976040704009F070580895552342F4E8
:1047AE00503811F4E0FF04C03196691F791F6BF089
:1047BE0050E8572711F45F93CFC05F3F31F0660F7B
:1047CE00000C57956795752F08955F9300200AF09A
:1047DE00CFC0C8C050E8192E1522880F991F9527F3
:1047EE00550F879550E8072E0522660F771F752700
:1047FE00550F67950895689401C0E8945F93F2DFB2
:10480E00703818F07F3F08F4A7C056E1571BAAF482
:10481E00519558300EF4593030F0EFEFFFEF6FEF47
:10482E007FE777F91AC077275523B9F0EE0FFF1FF0
:10483E00661F771F5A95D1F710C07727583028F08A
:10484E00EF2FF62F672F5850F9CF552331F076956D
:10485E006795F795E7955A95D1F700200AF449D157
:10486E005F910895689401C0E8943097604070405D
:10487E00B1F0002426F0772312F400943AD1172ECB
:10488E007EE1112032F07A95EE0FFF1F661F111C8C
:10489E00F9CFEF2FF62F612D5F938ADF5F91089589
:1048AE004F93AF01FD01DA01AB01BC01CA01402DEE
:1048BE00012C142E4F910895EA0FFB1F681F0895C7
:1048CE00E095F0956095EF5FFF4F6F4F08955F9302
:1048DE0081DF903871F150E8152604C05F937ADFBE
:1048EE00903839F1703821F1572F591B2BF112F4F2
:1048FE00D7DFFACF583118F0AA27BB2788275830B0
:10490E0028F0AB2FB82F88275850F9CF552329F010
:10491E008695B795A7955A95D9F7502D512572F0D2
:10492E00CBDF38F46795F795E795739513F420C0B0
:10493E00B7DF3EDF5F910895D8F7FBCFEA1BFB0B85
:10494E00680B51F010F40094BBDF662392F3EE0F68
:10495E00FF1F661F7A95CBF7EE27FF27662777276F
:10496E005F910895EFEFFFEF6FE77FEF5F9108958F
:10497E00EFEFFFEF6FE77FE75F9108955F932ADF19
:10498E00703851F3903841F301240894791F23F4C1
:10499E001CF300203AF3ECCF0F921F932F933F930B
:1049AE004F93112722279927689FA0018F9F302DA3
:1049BE00410D591F6B9F300D411D591F8E9F27D0E2
:1049CE00BF9F25D06A9F23D0BE9F1DD0AF9F1BD007
:1049DE00AE9F110D291F391F491F591FE32FF42FA9
:1049EE00652F522F4F913F912F911F910F9066235C
:1049FE002AF0550FEE1FFF1F661F02C073954BF274
:104A0E00CDDE5F910895100D211D391F02C0200DBE
:104A1E00311D491F591F08955F93DCDE703821F454
:104A2E0011200AF49FCFA4CF903809F495CF01241A
:104A3E000894970B1BF4D4F30020F3CF792F1F9318
:104A4E002F933F934F931124112722273327442767
:104A5E00552790E2AE17BF078607410730F0AE1B11
:104A6E00BF0B860B410B089401C08894551F221F63
:104A7E00331F111CAA1FBB1F881F441F9A9551F785
:104A8E00F901612D4F913F912F911F91662332F0C5
:104A9E00550FEE1FFF1F661F7A9543F27FDE5F9163
:104AAE00089599239AF0772342F0971748F029F446
:104ABE00AE17BF07860720F031F0989488940895BA
:104ACE009894089408951894889408957723C2F7BB
:104ADE00971798F3A9F7EA17FB07680788F399F376
:104AEE00ECCF0024AF0DB01D0895F195E195F04087
:104AFE000895F09560957095E195FF4F6F4F7F4F3C
:104B0E000895EE0FFF1FEE0FFF1FEE0FFF1FEE0FAC
:104B1E00FF1F0895F595E795F595E795F595E795BA
:104B2E00F595E7950895FE2FFF0FFF0B6F2F7F2F43
:104B3E0008956F2F660F660B762F0895EE23E1E032
:104B4E0009F0EE270895FA9FF02DEB9FF00DEA9FE6
:104B5E00E02DF10D08957A9F702D6B9F700DF89FCB
:104B6E00700DE99F700D6A9F602D710DFB9F600D9A
:104B7E00711DE89F600D711D8827FA9FF02D610D44
:104B8E00781FEB9FF00D611D781FEA9FE02DF10D50
:104B9E00681F781F08956E2F6A9FF0016B9FF00DAE
:104BAE00089579D0D8DF0EF4A4DF0895002498E09C
:104BBE00AA0F001C0E1A10F40E0E01C0A1609A95D9
:104BCE00B9F7EA2FA02D08955AD0F0DF0EF4E19533
:104BDE0008950024112490E1AA0FBB1F001C111C84
:104BEE000E1A1F0A18F40E0E1F1E01C0A1609A9510
:104BFE0099F7FD01D00108953F934F935F930024E1
:104C0E0011244427552730E2AA0FBB1F881F991F76
:104C1E00001C111C441F551F0E1A1F0A460B570B62
:104C2E0028F40E0E1F1E461F571F01C0A1603A9595
:104C3E0059F7FD01BC01D001CA015F914F913F911F
:104C4E000895E894A7FF02C0A1956894E7FDE19549
:104C5E00ADDFEA2F0EF4E1950895E894B7FF04C096
:104C6E00A095B09511966894F7FD3FDFB2DFFD0178
:104C7E000EF43BDF0895C0DFFD01BC010895E894FA
:104C8E00E7FF02C0E1956894A7FF04C0A19500F864
:104C9E00039400FA0895E89477FF02C02ADF68941F
:104CAE0097FF0BC00024A095B09580959095119616
:104CBE00801D901D00F8039400FA0895ED91FC916B
:104CCE0011970895ED91FD916D917C911397089533
:104CDE00A591B4910895E881F9816A817B81089547
:104CEE00A881B9818A819B810895E883F9836A83BB
:104CFE007B8308957A936A93FA93EA9308959A932D
:104D0E008A93BA93AA930895182E862F612D192E81
:104D1E00972F712D1B2EBF2FF12D1A2EAE2FE12D99
:104D2E000895E199FECFFF93FFB7F894AEBBBFBBDA
:104D3E00E09AEDB3FFBFFF91089507D01196EF9360
:104D4E00EF2F03D0EF9111970895E19B02C0A89524
:104D5E00FCCF9FB7F894AEBBBFBBE09A8DB3E817FC
:104D6E0019F0EDBBE29AE19A9FBF08959927EF9350
:104D7E00FF93A895E199FDCF7FB7F894EEBBFFBBEB
:104D8E00E09A6DB37FBF31966D93019791F7FF91C6
:104D9E00EF910895309760407040089500240A16F0
:104DAE000B0608955A934A933A932A931A930A93A9
:104DBE0008955D814C813B812A8119810881089576
:00000001FF
