:100000000C9482060C9400000C9400000C94B5062D
:100010000C9400000C9400000C9400000C94000060
:100020000C9400000C9400000C9493070C940000B6
:100030000C9400000C9400000C9439070C94000000
:100040000C9438070C9400000C9415070C940000D5
:100050000C9400000C94AE070C9400000C9400006B
:100060000C9400000C9400000C9400000C94000010
:100070000C9400000C9400000C9400000C94000000
:100080000C9400000C9400000C94000020051A054C
:10009000280526052C05360538053C0542050402D1
:1000A000FF02042040FF4020000000000000005F2D
:1000B00000000007000700147F147F14242A7F2A01
:1000C00012231308646236495522500005030000CC
:1000D000001C2241000041221C00082A1C2A08089A
:1000E000083E0808005030000008080808080030E2
:1000F00030000020100804023E5149453E00427F76
:10010000400042615149462141454B311814127F4C
:100110001027454545393C4A4949300171090503D5
:100120003649494936064949291E0036360000003D
:1001300056360000000814224114141414144122ED
:100140001408000201510906324979413E7E11111D
:10015000117E7F494949363E414141227F4141223A
:100160001C7F494949417F090901013E4141513202
:100170007F0808087F00417F41002040413F017F08
:10018000081422417F404040407F0204027F7F04E8
:1001900008107F3E4141413E7F090909063E415119
:1001A000215E7F09192946464949493101017F01EC
:1001B000013F4040403F1F2040201F7F2018207FEC
:1001C0006314081463030478040361514945430030
:1001D000007F4141020408102041417F00000402D9
:1001E00001020440404040400001020400205454F9
:1001F00054787F4844443838444444203844444880
:100200007F3854545418087E090102081454543C91
:100210007F0804047800447D40002040443D0000F5
:100220007F10284400417F40007C041804787C083B
:1002300004047838444444387C1414140808141412
:10024000187C7C080404084854545420043F44405B
:10025000203C4040207C1C2040201C3C4030403C46
:1002600044281028440C5050503C4464544C4400E2
:100270000836410000007F000000413608000201FE
:10028000020402081C2A08087E1111117E7F4949C8
:1002900049337F494949367F01010103E0514F410C
:1002A000FF7F4949494977087F08774949494936D5
:1002B0007F1008047F7C2112097C7F0814224120D2
:1002C000413F017F7F020C027F7F0808087F3E418B
:1002D00041413E7F0101017F7F090909063E4141FD
:1002E000412201017F0101274848483F1C227F220B
:1002F0001C63140814637F404040FF070808087F10
:100300007F407F407F7F407F40FF017F4848307FB4
:100310004830007F7F48483000224149493E7F08ED
:100320003E413E462919097F20545454783C4A4A9C
:1003300049317C545428007C0404040CE0544C449F
:10034000FC38545454086C107C106C4444545428A9
:100350007C2010087C78422412787C1028440020ED
:10036000443C047C7C0810087C7C1010107C3844D1
:100370004444387C0404047C7C1414140838444439
:10038000444404047C04040C5050503C18247E2443
:100390001844281028447C404040FC0C1010107C6D
:1003A0007C407C407C7C407C40FC047C5050207C29
:1003B0005020007C7C5050200028445454387C103D
:1003C000384438085434147CC4E8F1F2E8EBFFF602
:1003D000E8FF0000D0E5EAF2E8F4E8EAE0F6E8FF3A
:1003E0000000CFE0F0E0ECE5F2F0FB00C4E8F1F251
:1003F000E8EBFFF6E8E80000D0E5EAF2E8F4E8EA26
:10040000E0F6E8E80000C4E0F2F7E8EAEEE220F205
:10041000E5ECEF00CAE0EBE8E1F0EEE2EAE020EA2A
:10042000EB2E00007420EAF3E1E020EEF2EAEB2E7E
:100430000000D0F2FDED20EDE0F7E0EBFCEDE0FF99
:100440000000D0F2FDED20ECE8ED20743E363000E7
:100450005020EAEEEBEEEDFB20ECE0EAF100742038
:10046000EEF2E1EEF0E00000647420EEF2E1EEF076
:10047000E000543120E7E0E42E20EAEBE0EF2E002C
:10048000543220E7E0E42E20EAEBE0EF2E00742067
:10049000EAF3E1E020E7E0E42E20EAEB000074203C
:1004A000EAF3E1E020EEF2EAEB2E0000CEE1FAE51D
:1004B000EC20E3EEEBEEE200D1EAEEF0EEF1F2FC3E
:1004C00020EEF2E12E00C4EBE8F22E20E8ECEFF390
:1004D000EBFCF1E00000D4E0EAF220EEE1FAE5EC1A
:1004E00020EEF2E10000CAEEFDF4F42E20F0E0F17F
:1004F000F5EEE4E00000D220EAF3E1E00000D220D3
:10050000EAEEEBEEEDFB20EDE8E70000D220EAEEAC
:10051000EBEEEDFB20E2E5F0F500C2EAEB2E000089
:10052000C2FBEAEB2E00D100ECE8ED00ECEC2EF083
:10053000F22EF1F200002500ECEB2E00ECEB2E2F5A
:10054000F7002A313020ECF1000000000400900197
:1005500000002D2D2D2D2D2D2D2D2D2D2D2D2D2D25
:100560002D2D00204E696B6F706F6C0020202020B5
:1005700070726573656E742020202020002020207A
:100580002D3CD1CFC8D0D23E2D20202020002020CD
:1005900020EAEEEDF2F0EEEBEBE5F020202000207B
:1005A000687720762E312E316420502073656E00DE
:1005B00020737720762E302E33312E6620756E69AB
:1005C0000020C8EDE8F6E8E0EBE8E7E0F6E8FF2019
:1005D00020002020E4E0F2F7E8EAEEE220D220203A
:1005E00020200020202020CDE0E9E4E5EDEE2020D1
:1005F00020202000256920F8F2001412551207115E
:10060000B611330F9610BF109B12CC12D80EEC0E01
:10061000010000000000CDE5F220EDE0E7EDE0F79D
:10062000E5EDEDFBF500202020E4E0F2F7E8EAEE4E
:10063000E22020202000202020207420EAF3E1E0A6
:100640002120202020007420EAEEEBEEEDFB20E2DA
:10065000E5F0F521200020CFEEE4EAEBFEF7E5ED32
:10066000FB20EDE520002020E2F1E520E4E0F2F7B8
:10067000E8EAE820200020E8EBE820EEF2EAEBFED2
:10068000F7E5EDFB200020EFEEEBEDEEF1F2FCFEE6
:1006900020E2F1E52100202020CDE520E2E5F0ED8B
:1006A000FBE92020200020202020E4E0F2F7E8EA07
:1006B00020202020200020202020CDE520E2E5F091
:1006C000EDFBE9202020002020202020E4E0F2F7AC
:1006D000E8EA202020202000207420EAEEEBEEED56
:1006E000FB20E2E5F0F5212000202020C4E8F1F213
:1006F000E8EBFFF6E8FF20202000CFF0E5F0E2E095
:10070000F2FC00EFF0EEF6E5F1F13F003C454E540F
:100710003EC4E0203C4553433ECDE5F200CFF0EE31
:10072000F6E5F1F100C4E8F1F2E8EBEBFFF6E8E8FA
:1007300000C2F0E5ECFF3A2532693A2532693A25E4
:1007400032690074EAEEEB20E220252D332E32666A
:100750002025730074EAF3E1E02020252D332E32AA
:10076000662025730050252B332E316600D2DDCD57
:1007700020253369252500207420EAEEEBEEEDFB01
:1007800020EDE8E7212000D0E5EAF2E8F4E8EAE02D
:10079000F6E8FF0020D0E5EAF2E8F4E8EAE0F6E85F
:1007A000FF0074EAEEEB20ED20252D332E3266207B
:1007B0002573002020202020202020202020202001
:1007C00020202000D2DDCD253369252500D15CD144
:1007D00020257320CA2025690056F22025342E30AA
:1007E0006620ECEB2FF70051E32025342E326620F3
:1007F000ECEB00202020C4E8F1F2E8EBEBFFF6E898
:10080000FF202020002020D0E5EAF2E8F4E8EAE02A
:10081000F6E8FF202000EEEAEEEDF7E5ED2100CA54
:10082000E0EBE8E1F0EEE2EAE000CEF2E4EEE7E849
:10083000F0EEE2E0EDEDEE3A2000512025342E32CC
:100840006620ECEB006B2025312E346620ECEB00AB
:100850006920256920E8ECEF2E00C803A60A0000F5
:1008600000D403990B000000E203FD120300EC0327
:10087000FD12010002F803FD120200020604FD123F
:100880000400021404611600000224041114000381
:10089000003204111400030042041114000301503B
:1008A0000411140003015E04111400030168041113
:1008B00014000301720411140003018004111400D8
:1008C00003018E0411140003019E0411140003019E
:1008D000AC041114000301B8041114000301C60490
:1008E0001114000301D6041114000301E6041114CD
:1008F00000030100F604B115000302FE04B1150067
:1009000003020C05B1150003020000034E0F0102A3
:100910007F0F020D8D0F0304630F0403E80F2D25D5
:10092000732D002D3DCCE5EDFE3D2D005B25735D67
:10093000002573002D25732D002A25732A002531EB
:100940002E34662025730025332E32662025730051
:100950002575202573003C25733E00C8EDE8F6E8B8
:10096000E0EBE8E7E0F6E8FF00CFEEE4EAEBFEF7C5
:10097000E8F2E520EEE4E8ED00E4E0F2F7E8EA2052
:1009800021212100EDE0E6ECE8F2E5203C454E5463
:100990003E0049443A2532582532580020C8EDE837
:1009A000F6E8E0EBE8E7E0F6E8FF200020EFF0EE05
:1009B000F8EBE00020F3F1EFE5F8EDEE210020ED9B
:1009C000E520EFF0EEF8EBE02E20C4EBFF00EFEEB9
:1009D000E2F2EEF0E020EDE0E6ECE8F2E5003C4586
:1009E0004E543E2E203C4553433E00E4EBFF20E2B4
:1009F000FBF5EEE4E02E00202020CAE0EBE8E1F079
:100A0000EEE2EAE02020200020E4EEE7E8F02E20ED
:100A1000EAEBE0EFE0EDE020002020CEF2E1EEF0A6
:100A200020353020ECEB2E202000202020C4EBFFCE
:100A300020EDE0F7E0EBE02020200020EDE0E6EC08
:100A4000E8F2E5203C454E543E202000202020CAFC
:100A5000E0EBE8E1F0EEE2EAE020202000202020B8
:100A600020E4E0F2F7E8EAE0202020202000202027
:100A7000E4E0E2EBE5EDE8FF2E2E2E202020000042
:100A80002D4E414E000001002D4E414E00494E4674
:100A90000000010002004A0501006A0A4C0502003C
:100AA0006D0A4E0511000005520509001105630588
:100AB00011001A056C0511002B057D0511003C0580
:100AC0008E0511004D059F0511005E05B005110052
:100AD0006F05C10511008005D20511009105E305E0
:100AE0000100060050051600060FFA0501005A0A1B
:100AF00010061000A20516061000B205260610000A
:100B0000C20536061000D20516061000E2052606BC
:100B10001000F205460610000206560610001206E6
:100B200066061000220676061000320686061000C1
:100B30004206960610005206A60610006206360609
:100B400011007206B60611008306C706110094064E
:100B5000D8061100A506E9060900B606FA0609003E
:100B6000BF0603071100C8060C070800D9061D07B9
:100B70000C00E10625071000ED0616061000FD0624
:100B8000260610000D07360610001D071606100079
:100B90002D07260610003D07770710004D071606A3
:100BA00010005D07260610006D07460610007D0741
:100BB000560610008D07660610009D077606100089
:100BC000AD0786061000BD0796061000CD07A606E5
:100BD0001000DD0736061100ED07B6061100FE070E
:100BE000C70611000F08D80610002008960610004E
:100BF0003008A6061000400877070D005008870748
:100C000009005D08FA0609006608030711006F086D
:100C10000C070E008008940711008E08B30712001D
:100C20009F08F3071100B10805080800C2081D0756
:100C30000900CA0816080B00D3081F080900DE08BF
:100C4000FA060900E70803071100F0080C070B007B
:100C500001091F0810000C092A0804000A001206E6
:100C600013004E0F5A081C00630F6E080D007F0F13
:100C70008A085B008D0F98081500E80FF40814002F
:100C8000200B0A090E001C095B0910002A096909DA
:100C90000B003A0979090E0045098409100053092F
:100CA0009C0908006309AC090A006B09B40910002B
:100CB00075099C0910008509BE0910009509CE0927
:100CC0000D00A509DE090C00B209EB091100BE09EF
:100CD000F7091100CF09080A1100E009190A1100EB
:100CE000F1092A0A1100020A3B0A1100130A4C0AF0
:100CF0001100240A5D0A1100350A6E0A0100FD0F79
:100D0000860A0000F894EE27ECBBF1E0F5BFE5BFE2
:100D1000E0936C00F8E1F1BDE1BD8DE0A2E0BB27FE
:100D2000ED938A95E9F780E090E1A0E0B1E0ED93E2
:100D30000197E9F7E2E9FAE085919591009761F072
:100D4000A591B59105901590BF01F00105900D9208
:100D50000197E1F7FB01F0CF8BBFEFEFEDBFE0E1D3
:100D6000EEBFC0E0D5E00C94C2070E94201EA09107
:100D70006A0BAF5FA0936A0BA33630F0ABE00E9422
:100D8000770AE0E0E0936A0BA091680AA43611F4B8
:100D9000DA9A19C0A091680AA130A0F0A091690B5D
:100DA000AF5FA093690BE091680AAE1710F0DA9874
:100DB00001C0DA9AA091690BA33618F0E0E0E09345
:100DC000690B04C0DA98E0E0E093690BABE6BBE0A6
:100DD0000E942E1EE0916D0AF0916E0A3197A0914B
:100DE0006B0BB0916C0BAE17BF0768F0E0E0E093BF
:100DF0006B0BE0936C0BE091690AE03021F0ABE6FD
:100E0000BAE00E942E1EE091690AE03069F0E0919C
:100E10006A0AA0916B0BB0916C0BF0E0AE17BF07A4
:100E200010F4DB9A01C0DB988BC0EA93FA93EFB71A
:100E3000EA931A930A931BB10CB1E12FEC7189F478
:100E4000E52D5394F0E0E359F44F0083E8E0E51515
:100E500009F455247394E8E0E71519F477246894AD
:100E600020F809911991E991EFBFF991E99118954D
:100E700018950E94201EE7ECEDBDE1EBECBDA5E06E
:100E80000E94590AE091750BEF5FE093750BA091FA
:100E9000750BAA3030F0AAE00E94590AE0E0E09316
:100EA000750BA0915A0AA43031F0A53021F0A6307C
:100EB00011F0A830E1F4E091650AEF5FE093650A74
:100EC000A091650AAC3398F0E091660AEF5FE09379
:100ED000660AE0E0E093650AA091660AAC3338F058
:100EE000E093660AE091670AEF5FE093670AA091DA
:100EF0005A0AA53011F0A630A9F4E0915C0AE0305E
:100F000021F4AEE5BAE00E942E1EE0915C0AE030CA
:100F100021F4E0915D0AE03009F404C0A0E6BAE0F3
:100F20000E942E1E0DC00E94201E6394EFE06E16DC
:100F300020F0A6E00E94590A6624A7E00E94590A00
:100F4000E991EFBFF991E991B991A99199918991AD
:100F500079916991F99019900990189584B095B09C
:100F60001895AA93E881E064E7B981E38A95F1F7DF
:100F7000E5B7E37EE862E5BF8895EF7DE5BFF40164
:100F80000C94900A10E00E947B16EFE7E1BFA8E006
:100F90000E94FD180E94E40959D0AAE0B0E00E9426
:100FA00053230E94341EA0E0B5E03AD1A1E1B5E0A0
:100FB0004AD10E94391EAAE1B5E032D1ABE2B5E0D8
:100FC0002FD1ACE3B5E02CD1ADE4B5E029D1AEE54D
:100FD000B5E026D1E0E0E1BF0E943E1E0E94391E2E
:100FE000AFE6B5E01DD1A0E8B5E01AD1A1E9B5E0C2
:100FF00017D10E94441EE03041F40E94501EE0913F
:10100000620AFF276627772706C00E94501EE0E08D
:10101000F0E060E070E00E94EA250E94591E0E9404
:101020005E1E0E94631E0E943E1E0E9476150E9454
:10103000C51478940E94F3160E943B0A1E2F1030AC
:1010400019F0A12F0E94920AF7CFFFCFE4B3EF600F
:10105000E4BBA998A898A4E1B0E00E945323A89A01
:10106000E0E0EA93A2EE0E94671EAAE30E94671ED8
:10107000AFEE0E94671EA4E00E94671EA0ED0E94D2
:10108000671EA0E20E94671EA0E90E94671EA4EAF4
:101090000E94671EAFE20E94671EA0E40E94671EC6
:1010A000A0EB0E94671EA0E10E94671EA0E00E94C4
:1010B000671EACEA0E94671EA7E00E94671EAFEAA7
:1010C00024D001D008951A930A93E0E0EA93A0E4B3
:1010D0000E94671EA0EB0E94671EA0E10E94671E8F
:1010E000A0E013D0E0E0E093CD0EE093CE0E00E060
:1010F00010E00038E9E11E0728F40E946C1E0F5F23
:101100001F4FF7CF099119910895AA931A93A9989F
:10111000AB98EA81E03041F1E091CD0EA9E0EA9F81
:10112000F001EA58F44FDF01E091CE0E0E94711EEB
:10113000A981A083E091CD0EEF5FE093CD0EA09149
:10114000CD0EA03640F0E0E0E093CD0EE091CE0E63
:10115000EF5FE093CE0EA091CE0EA93018F0E0E044
:10116000E093CE0EAA9A01C0AA98AB9A10E018306C
:1011700080F4AB98E981E07811F0AA9A01C0AA98AE
:10118000AB9AE981EE0FE9838AE08A95F1F71F5F58
:10119000EECFA99A1881D8C1AA931A93A981A03831
:1011A00018F0E981E054E98310E0153040F4E1E003
:1011B000EA930E94751EA491A8DF1F5FF6CF0E94DC
:1011C0006C1E188171C0AA931A93A981A03818F0D7
:1011D000E981E054E98310E0153080F421970E9402
:1011E000751EE491E883E1E0EA93A9818EDFE1E0F6
:1011F000EA93A9818ADF21961F5FEECF0E946C1EC1
:10120000188152C0BA93AA93A881B981EC91E030B9
:1012100031F0ED91A883B983AE2FBEDFF5CF44C086
:10122000BA93AA931A93A981BA81EC911E2F103018
:1012300041F0A12FB1DFE981FA813196E983FA8388
:10124000F2CF188181C1BA93AA931A93A981BA8166
:10125000EC911E2F103041F0A12FB5DFE981FA810A
:101260003196E983FA83F2CF18816EC1AA93E9819E
:10127000A6E0EA02F001E983E093CD0EE881E09375
:10128000CE0EE0E0EA93E981EF70E06BAE2F0E94B2
:10129000671EEA81EF70AE2F0E94671EEA81E29519
:1012A000E770E061AE2F31DF22960895AA93A091F6
:1012B000E20EA83098F4E091E00E0E94811EA88111
:1012C000A083E091E20EEF5FE093E20EE091E00E8A
:1012D000EF5FE093E00EE770E093E00E21C11A9318
:1012E00010E0E091E20EE03091F0E091E10E0E941A
:1012F000811E1081E091E20EE150E093E20EE09158
:10130000E10EEF5FE093E10EE770E093E10EE12F75
:10131000CEC0AA931A930A93EB81E150EB830E940B
:10132000851EEC52F14F108100E00E94851EE153B2
:10133000F14FE081E093D30EEC81E03009F1A09110
:10134000D30EA531E0F4E091D30EEF5FE093D30E1E
:10135000A091D30EA63038F010FD05C01160EA81CF
:10136000E17009F001E0A091D30EA53140F011FD2C
:1013700006C01B7F1260EA81E27009F002E00DC036
:1013800010FF02C011FF01C004C0EA81E47009F03F
:1013900003E0E0E0E093D30E1C7F003029F0AB8146
:1013A000AF5F84DFA02F82DF0E94851EE153F14FE3
:1013B000A091D30EA0830E94851EEC52F14F1083A2
:1013C00019810881259608951A9310E0143070F45D
:1013D0000E94881EE153F14FA0E0A0830E94881E66
:1013E000EC52F14FA0E0A0831F5FF0CF10E0183067
:1013F00038F4E12F0E94811EA0E0A0831F5FF7CF89
:10140000E0E0E093E00EE093E10EE093E20ED0988E
:10141000D898D198D998D498DC98D598DD9847C0B9
:101420001A9310E0C89902C011E001C010E01A93AD
:10143000E1E0EA93A3E06DDFC99902C011E001C0C9
:1014400010E01A93E2E0EA93A3E063DFCC9902C0D4
:1014500011E001C010E01A93E3E0EA93A1E059DF44
:10146000CD9902C011E001C010E01A93E4E0EA93C4
:10147000A1E04FDF1CC01A93A091050FA130B0F07E
:101480000E948B1E1081E091050FE150E093050F43
:10149000E091040FEF5FE093040FA091040FA032DE
:1014A00019F4E0E0E093040FE12F01C0E0E01991AE
:1014B0000895AA93A091050FA032C0F4E091030F04
:1014C000F0E0ED51F14FA881A083E091030FEF5FB1
:1014D000E093030FA091030FA03219F4E0E0E09332
:1014E000030FE091050FEF5FE093050F19C0AA937A
:1014F000A091050FA032A0F4E091040FE03011F4A8
:10150000EFE103C0E091040FE150E093040F0E946B
:101510008B1EA881A083E091050FEF5FE093050F7C
:1015200021960895AA931A930A93EA81F0E03197DD
:10153000A6E0BFE0EE0FFF1FAE0FBF1F0D911C9185
:10154000F801099519810881239608950E9463087E
:10155000A091510BAF3F11F0A03069F40E94341EEE
:10156000A2EAB5E00E941009A2EBB5E00E941009C2
:10157000A2ECB5E06DC1A091610BAF3F21F0A0914D
:10158000610BA03069F40E94341EA2EDB5E00E9408
:101590001009A2EEB5E00E941009A2EFB5E058C113
:1015A0000E94441EA091620AA23088F40E94341E58
:1015B000A2E0B6E00E941009A2E1B6E00E94100984
:1015C000A2E2B6E00E941009A2E3B6E041C10E9487
:1015D000911E69F00E94341EA2E4B6E00E94100938
:1015E000A2E5B6E00E941009A2E6B6E031C10E9471
:1015F000A01E69F00E94341EA2E7B6E00E94100906
:10160000A3E8B6E00E941009A4E9B6E021C10E9457
:10161000AF1EE091790AE093680ADB98E4E02FC1FD
:101620002497E0E2E883E0E0E983E0E2EA83E0E0B7
:10163000EB83E0915B0AE030D9F00E94B71EA5EA87
:10164000B6E00E9410090E94391EA6EBB6E00E9487
:10165000BC1EA3E00E943609AFEBB6E00E94BC1EA0
:10166000A4E00E943609A8ECB6E00E94100960C010
:101670000E94C11E0E94D61E10F0EEE10BC00E9417
:10168000C11E0E94DD1E19F010F00C94490BEFE111
:1016900001C0E0E2EA830E94E41E0E94D61E10F020
:1016A000EEE10BC00E94E41E0E94DD1E19F010F056
:1016B0000C945C0BEFE101C0E0E2E8830E94F91EAC
:1016C000E5E00E94251FA9EDB6E00E94291FA1E0D8
:1016D0000E943609A1EEB6E00E942E1F0E94331F21
:1016E0000E943B1F0E94591F0E94631F0E94721F8D
:1016F0000E94631E0E945E1E0E947D1F0E94821F28
:101700000E94911F0E94981FE1E00E949D1F0E946D
:101710007D1F0E94A11F0E94631EE1E0EA93A7E0E3
:101720000E94B01FEDE6F7E00E94B31F0E94631E07
:1017300032C20E946308A091510BAF3F11F0A0305C
:1017400069F40E94341EADEEB6E00E941009ADEFC0
:10175000B6E00E941009ADE0B7E07AC0A091590B45
:10176000AF3F21F0A091590BA03069F40E94341EC4
:10177000ADE1B7E00E941009ADE2B7E00E941009A8
:10178000ADE3B7E065C0A091610BAF3F21F0A09140
:10179000610BA03069F40E94341EADE4B7E00E94F2
:1017A0001009ADE5B7E00E941009ADE6B7E050C002
:1017B0000E94441EA091620AA33088F40E94341E45
:1017C000ADE7B7E00E941009ADE8B7E00E9410094C
:1017D000ADE9B7E00E941009ADEAB7E039C00E9458
:1017E000911E69F00E94341EADEBB7E00E94100913
:1017F000ADECB7E00E941009ADEDB7E029C00E9442
:10180000A01E69F00E94341EADEEB7E00E941009E0
:10181000AEEFB7E00E941009AFE0B8E019C00E9437
:10182000BD1FE8E0EA93E9E1EA93E3E2EA93AFE57A
:101830000E94BE18E030A9F00E94341EA0E2B8E079
:101840000E941009A0E3B8E00E941009A0E4B8E0EB
:101850000E941009A8E8B3E10E9453230E94C21F0E
:1018600008950E94AF1EE4E6E093680ADB980E94A8
:10187000C61F0E94CC1FE0E0E0935D0AE5E0E09324
:101880005A0A08956797E0E2E98BE0E0EA8BE0E22C
:10189000EB8BE0E0EC8BE0E2ED8BE0E0EE8BE091B7
:1018A0005B0AE030F9F0E2E0EA93A1E00E94360939
:1018B000A0E5B8E00E94D31FA2E00E943609ADE582
:1018C000B8E00E94D31FA3E00E943609A6E6B8E064
:1018D0000E94BC1EA4E00E943609AFE6B8E00E9458
:1018E0001009BAC00E94C11E0E94D61E10F0EEE17F
:1018F0000BC00E94C11E0E94DD1E19F010F00C9456
:10190000830CEFE101C0E0E2ED8B0E94D81F0E9442
:10191000D61E10F0EEE10BC00E94D81F0E94DD1E03
:1019200019F010F00C94960CEFE101C0E0E2E98BA5
:101930000E94E41E0E94D61E10F0EEE10BC00E9431
:10194000E41E0E94DD1E19F010F00C94A90CEFE1CA
:1019500001C0E0E2EB8B0E94F91EE1E00E94251F2E
:10196000A0E8B8E00E942E1FA1E00E94B01F0E94D4
:101970003B1FE1E0EA93A2E00E94B01F0E94631FB8
:10198000FE017B960E94ED1FE1E0EA930E94331F67
:10199000E2EAF7E0FA93EA930E94F21F0E94EA2536
:1019A000FE0179960E94ED1F0E94591F0E94821F1E
:1019B000FE017D960E94ED1FE0E0EA93A5E00E9403
:1019C0003609AEE8B8E00E9410090E945E1E0E942F
:1019D0007D1F0E94A11F0E94631EE8E0EA93A5E01C
:1019E0000E94B01FE4ECF7E00E94B31F0E94631E48
:1019F000E1E00E949D1F0E94FB1FE0915D0AACE8A0
:101A0000B0E0F0E00E94FF1FEDECF7E00E9408203C
:101A1000E0914C0FF0914D0F0E94ED1FE1E0EA9331
:101A2000A7E00E943609E0915D0AE03049F00E948B
:101A30007D1FE9EDF7E0FA93EA930E94112006C0BA
:101A40000E947D1FE7EEF7E00E941A200E94EA251F
:101A50000E94591E0E94631E679608952497E4E031
:101A6000E0936A0A0E94C61FE5E0F5E469EB72E4C0
:101A70006BC02497E091970AE0936A0AA0913C0F0B
:101A8000B0913D0F80913E0F90913F0FEAE9F9E947
:101A900068EA72E40E94E62418F1E0913C0FF091AC
:101AA0003D0F60913E0F70913F0FA0E0B0E080E2EB
:101AB00091E40E945324A0E0B0E085E794E40E9402
:101AC0002520DF01CB01E0E0F0E069E073E40E9453
:101AD000A124DF01CB010E942A200E94532402C0CE
:101AE0000E942A20E093480FF093490F60934A0F19
:101AF00070934B0F0E941120ABEFBAEE8AE299EB84
:101B00000E945324A091480FB091490F80914A0F31
:101B100090914B0F0E9453247F936F93FF93EF9309
:101B20000E941120AFECB7EF83E99FE30E9453249A
:101B3000AF91BF918F919F910E940324A0E1B8E5DE
:101B400089E99FE30E9403240E94E525E0916A0A47
:101B5000F0E00E9433200E9438207F936F93FF9320
:101B6000EF930E94E025E0E0F0E061E675E40E947A
:101B7000A124AF91BF918F919F910E94A124A0E0D9
:101B8000B0E088EC92E40E945324ADE6BAE00E94F3
:101B90009023ED93FC93249608950E946308A091EE
:101BA0005A0AA43031F40E94B71EAFE9B8E00E948F
:101BB0001009A0915A0AA53031F40E94B71EA1EB7A
:101BC000B8E00E941009E1E0EA93A3E00E94360920
:101BD000A2ECB8E00E942309E1E00E944320AAECB5
:101BE000B8E00E942309EFE7E1BFE0E0E0935A0A82
:101BF000DB98E093680AE0935D0AAA24E0935B0A0D
:101C000022C0E4E6F0E0E0936D0AF0936E0AE4E0AF
:101C1000E0936A0A0E94C61F0E94AF1EE0E0E093B4
:101C20005B0AE8E0E0935A0A0E9447200E943820AD
:101C3000A0E0B0E088E492E40E944F20E093460FD9
:101C4000F093470FE1E0E093690A0895E091730A89
:101C5000F091740A0E9454207F936F93FF93EF9347
:101C6000A0916A0ABB27882799270E9459200E94C1
:101C700062250E94C923AF91BF918F919F910E94CD
:101C800060200E948B15E0E0E0935B0A0895E091EC
:101C90005B0AE030F9F0E3E0EA93A1E00E94360944
:101CA000A3EDB8E00E94D31FA2E00E943609AEED7A
:101CB000B8E00E94D31FA3E00E943609A7EEB8E067
:101CC0000E94BC1EA4E00E943609A0EFB8E00E946A
:101CD00010096DC0E091460FF091470FA0916B0A7B
:101CE000B0916C0AAE17BF07F0F0E0E0E093690A2C
:101CF000DB98E2E3F0E0E093730AF093740AEDE01E
:101D00000E946B20A091730AB091740AA083B183E2
:101D10000E947320EBE0E093360B0E946308E9E039
:101D2000E0935A0A44C0E3E00E94251FA1E0B9E015
:101D30000E942E1FA1E00E94B01F0E943B1FE1E005
:101D4000EA93A3E00E943609ACE0B9E00E94291FA3
:101D5000A4E00E94B01FEAE3F8E00E941A200E946B
:101D60007F200E94631EE3E0EA93A5E00E94B01F7B
:101D7000E5E4F8E0FA93EA93E0916F0AF091700AD3
:101D80006091710A7091720A0E947F200E94631E06
:101D9000E3E00E949D1F0E947D1FE0E5F8E0FA93BA
:101DA000EA930E9459200E947F200E94631E08959A
:101DB0000E948220E530A0E0FA0769F4E0915D0A14
:101DC000E03049F0EB2D0E9486200E948C200E947A
:101DD000A1240E94952008950E948220E430A0E072
:101DE000FA0749F40E94A9200E94BA200E94BD1F50
:101DF0000E94DA2034C0E530A0E0FA0781F50E94A5
:101E0000A9200E94F21FE0932C0FF0932D0F6093F6
:101E10002E0F70932F0F0E94BA20E9E5FBE0FA9392
:101E2000EA93A8E00E945818E093200FF093210F46
:101E30006093220F7093230F0E94BD1F0E94DA202F
:101E40000E94E6200E948C200E940324E093400F11
:101E5000F093410F6093420F7093430FB394A8E047
:101E60000E944E1808950E948220E430A0E0FA07F4
:101E7000B9F4E091750AF091760A6091770A709151
:101E8000780A0E94EF200E94E62440F4A091600AA4
:101E9000B091610AA03BE4E0BE0708F07EDE45C1D8
:101EA000E530A0E0FA0711F00C9489100E94EF20B1
:101EB000E0E0F0E060E772E40E94E62409F010F44C
:101EC0000C94D40FE0917B0AE093680AE0917D0ABC
:101ED000F0917E0AA091340FB091350F8091360FAA
:101EE0009091370F0E9454200E94E62419F010F0C0
:101EF0000C947C0FAA2039F0E091680AEA50E09334
:101F0000680AE1E0AE2EA091240FB091250F8091D8
:101F1000260F9091270FE091300FF091310F6091D3
:101F2000320F7091330F0E94FC23DF01CB010E941E
:101F3000101DDF01CB01E0E0F0E060E87EE30E94ED
:101F4000E62419F010F00C94B90FE0915D0AE0302E
:101F500081F40E94EF20E0E0F0E066E972E40E9484
:101F6000E62409F010F40C94B90FE091690AE0300E
:101F700009F015C0A091440FB091450FA835E2E0DB
:101F8000BE0710F0DD2009F005C0E1E0DE2EEFE72E
:101F9000E1BF04C0A4E4BFE00E942E1E05C0E0E043
:101FA000E093440FE093450FE0915D0AE03049F47F
:101FB0000E94F820DF01CB010E9447200E94FE20F2
:101FC00009C0E0E0E093380FE093390FE0933A0F57
:101FD000E0933B0FE091930AF091940A0E94542001
:101FE000A091380FB091390F80913A0F90913B0F2B
:101FF0000E94E62440F0E0915D0AE03021F4E09197
:10200000690AE03009F404C0E0E0E093690ADB9873
:10201000E0915D0AE03011F40C947910E0917F0AB0
:10202000F091800A6091810A7091820AA091830ADE
:10203000B091840A8091850A9091860A0E940324B7
:102040000E9409210E94E62408F1E0E0E0935E0A84
:10205000E0935F0ADB98E093690AE0935C0ACC2086
:10206000A1F4E1E0CE2EACE4BFE00E942E1E0E945F
:102070002A20ACEEB1E588E79FE30E9453240E943A
:102080009223E093950AF093960A33C0E0E0E09340
:10209000600AE093610AE0915C0AE03029F0E1E037
:1020A000E093690ACC2425C0E0918B0AF0918C0A58
:1020B00060918D0A70918E0A0E94EF200E94E624A2
:1020C00009F010F40C946F10A091890AB0918A0A5B
:1020D0000E94122118F0E1E0E0935C0A0AC0A0918E
:1020E000870AB091880A0E94122118F0E1E0E0937B
:1020F0005C0AE0918F0AF091900A6091910A7091C8
:10210000920A0E94EF200E94E62410F046DD089516
:102110000CC0E830A0E0FA0741F40E94F820DF018B
:10212000CB010E9447200E94FE2008950E94822039
:10213000E130A0E0FA0711F483D220C0E230A0E041
:10214000FA07D1F0E630A0E0FA07B1F0E430A0E001
:10215000FA0711F465DA12C0E530A0E0FA0711F4CD
:1021600091DB0CC0E830A0E0FA0711F490DD06C066
:10217000E930A0E0FA0711F40E94341408951A938C
:102180000A930E94100A0E946F091E2F1030E1F17D
:102190000E946F090E2F013041F50E94881EE13028
:1021A000A0E0FA0729F4A2E00E94590AE4E61AC066
:1021B000E230A0E0FA0729F4A1E00E94590AE5E71D
:1021C00011C0E330A0E0FA0729F4A3E00E94590A05
:1021D000E5E608C0E430A0E0FA0731F4A4E00E948C
:1021E000590AE2E6E093340B0FC00E94881EE130EA
:1021F000A0E0FA0711F4A9E005C0E230A0E0FA0778
:1022000019F4A8E00E94590A0991199108950E94B1
:102210008220E130A0E0FA0781F40E941C210E9494
:102220002421AE0FBF1F1296ED91FD910995A0914B
:102230005A0AA13009F404D298C0E230A0E0FA07AB
:1022400039F40E94C5140E948B150E9434218DC060
:10225000E330A0E0FA0729F40E9404160E9434211A
:1022600084C0309731F4E1E0E0935A0AE0E0E1BF46
:1022700079C0E430A0E0FA0739F4E0915B0AE0307D
:1022800011F00E943A2171C0E530A0E0FA0729F56B
:10229000E0915B0AE03019F00E943A211DC00E94D3
:1022A0006308E6E0E0935A0AE4E00E946B20FF93A3
:1022B000EF930E9409210E9442210E945324AF9172
:1022C000BF910E949023ED93FC930E947320E2E063
:1022D000E093360B0E94341448C0E630A0E0FA07C1
:1022E000C9F40E94C5140E948B150E944721E093F7
:1022F0005D0A0E94CC1F0E94C61FE1E0E093690ABC
:102300000E94E6200E9495200E946308E5E0E09389
:102310005A0A2BC0E730A0E0FA0729F40E946308AC
:1023200070DCB5DC22C0E830A0E0FA0781F4E0916F
:102330005B0AE03059F0DB98E0E0E093690AE09353
:102340005B0AE1E0E0935A0A0E94C21F0EC0E93026
:10235000A0E0FA0751F40E94C51478DC0E944721DE
:10236000E0935A0A0E9463086BD108950E9482206C
:10237000E230A0E0FA0719F40E94342154C0E3309F
:10238000A0E0FA0719F40E9434214DC0E130A0E02A
:10239000FA0771F4E091350BE03011F02ED106C050
:1023A000E091350BE03019F40E94630849D13BC03D
:1023B000309741F4E1E0E0935A0AE0E0E1BF0E9487
:1023C000C21F31C0E430A0E0FA0749F1E530A0E0D7
:1023D000FA0779F4DD2041F0E0E0E1BFDD24E0938D
:1023E000440FE093450F04C0E0915B0A0E94512125
:1023F0001AC0E630A0E0FA0771F4E091370BE093E1
:10240000350BE091380BE093360B0E946308E5E052
:10241000E0935A0A08C0E830A0E0FA0721F4E091FE
:102420005B0A0E94512108950E948220E130A0E0C1
:10243000FA0789F4A091360BA03029F40E941C21E0
:102440000E94572102C0E091360BE150E093360B19
:102450000E94C21F29C0E230A0E0FA0709F1E6306D
:10246000A0E0FA07E9F0E430A0E0FA0759F4E091BF
:10247000680AEF5F0E945C21A53618F0E4E6E0935D
:10248000680A12C0E530A0E0FA0731F4E0915D0A75
:10249000E03009F4DB9A08C0E930A0E0FA0721F443
:1024A0000E9463080E94AE1308950E948220E130CA
:1024B000A0E0FA07B1F40E941C210E945721F0E02D
:1024C0003197A091360BB0E0AE17BF0714F0E0E0F3
:1024D00003C0E091360BEF5FE093360B0E94C21F02
:1024E00029C0E230A0E0FA0709F1E630A0E0FA07DF
:1024F000E9F0E430A0E0FA0759F4E091680AE1500D
:102500000E945C21A13018F4E1E0E093680A12C057
:10251000E530A0E0FA0731F4E0915D0AE03009F41B
:10252000DB9808C0E930A0E0FA0721F40E946308B4
:102530000E94C41308950E948220E230A0E0FA07AE
:1025400021F1E630A0E0FA0701F1E530A0E0FA075A
:1025500049F4E0915D0AE03021F480DAE1E0E093B3
:10256000690A19C0E430A0E0FA0759F4E091680A5A
:10257000EC5F0E945C21A53618F0E4E6E093680A5F
:102580000AC0E930A0E0FA0731F40E9463080E9413
:10259000C4130E94DC1308950E948220E230A0E060
:1025A000FA0721F1E630A0E0FA0701F1E530A0E0FA
:1025B000FA0749F4E0915D0AE03009F4DB98E0E0C5
:1025C000E093690A19C0E430A0E0FA0759F4E091F9
:1025D000680AE4500E945C21A53018F4E1E0E09321
:1025E000680A0AC0E930A0E0FA0731F40E946308E3
:1025F0000E94AE130E94F4130895E091340BF0E0B2
:10260000E536A0E0FA0741F40E941C210E94242133
:10261000AE0FBF1F14960BC0E236A0E0FA0751F4CC
:102620000E941C210E942421AE0FBF1F1596EC9121
:10263000E093350B0E946308E0E0E093360B0895C9
:1026400061970E944226E091350BE03091F00E94A4
:1026500061210E9424210E946621EEE1F9E00E949E
:1026600079210E94591E0E947C21A7E0AE1BAA93EB
:102670000CC00E947D1FE3E2F9E0FA93EA9380E048
:102680000E94DC1C2496E3E0EA93A1E00E948321EF
:1026900055E022E00E941C21AE0FBF1F1196AC91A5
:1026A000E52F0E948621DCF4A091360BBB27E52F95
:1026B000F0E0E7FDFFEF3197AE1BBF0B0E943E2617
:1026C0005CF4E52FE150A091360BAE1B0A2FE09190
:1026D000360BEF5F3E2F02C000E0352F07C00E948F
:1026E0001C21AE0FBF1F11963C9100E0102F131755
:1026F00074F5E091360BA12FB0E0A7FDBFEFF0E03D
:10270000EA17FB0771F40E9461210E948D210E944B
:102710009421ECE2F9E00E9479210E94591EE0E048
:102720000DC00E9461210E948D210E949421E1E34D
:10273000F9E00E9479210E94591EE1E0EA93A22F5C
:102740002F5F0E9436090E94631E1F5FD0CFEBE609
:10275000E093340B0E944926679608950E94A221B7
:10276000E756F54FDF010E942E1EBF01F001E35630
:10277000F54FDF010E94A82130F40E94A2210E949F
:10278000AD210E94B22108950E94A2210E94BA2187
:10279000A556B54F0E94A82140F40E94A2210E9494
:1027A000C0213197FE93EE9306C00E94A2210E94A1
:1027B000AD210E94C62108950E94A2210E94C0213D
:1027C000EC59FF4FFE93EE930E94A2210E94BA2182
:1027D000A356B54F0E94A82130F40E94A2210E9466
:1027E000AD210E94B22108950E94A2210E94BA2127
:1027F000A556B54F0E94CE25EC59FF4FE617F707B7
:1028000048F40E94A2210E94C021E456F040FE93A9
:10281000EE9306C00E94A2210E94AD210E94C62113
:1028200008951A93E2E00E94CE21E0E0E093980A36
:1028300011E0E091350B1E1778F4E12FA0E2BBE028
:10284000F0E00E9416250E945721A091980AEA0FF5
:10285000E093980A1F5FEDCFE091360BA091980AA4
:10286000EA0FE093980A2BC261970E94FB1F0E9417
:102870001C210E9424210E946621E4E3F9E00E94C9
:1028800008200E94591E0E947C210E94D2210E9491
:10289000FB1F0E941C210E9424210E94D721E9E3F2
:1028A000F9E00E9408200E94591E0E947C21A8E0A5
:1028B000AE1BAA93A2E00E9483210E94A221EF55A1
:1028C000F54FA081A33089F40E94FB1F0E94A22132
:1028D0000E94DF21EEE3F9E00E94E7210E94EA2155
:1028E0000E94F3210E94F82149C00E94A221EF55C5
:1028F000F54FA081A23089F40E94FB1F0E94A22103
:102900000E94DF21E7E4F9E00E94E7210E94EA212A
:102910000E9442210E94F82131C00E94A221EF555D
:10292000F54FA081A13099F40E94FB1F0E94A221C3
:102930000E94DF21E0E5F9E00E94E7210E94FD21ED
:10294000662777270E94EA250E94721F17C00E94FF
:10295000A221EF55F54FE081E03081F40E94FB1F8A
:102960000E94A2210E94FD21ACE8B0E00E94FF1F5E
:10297000E6E5F9E00E9408200E94591E0E947C2191
:10298000A7E0AE1BAA93A4E039C11A930A93E09181
:10299000990AF0919A0A0E940322E093750AF09333
:1029A000760A6093770A7093780AE091A20AF09110
:1029B000A30AE093790AF0937A0AE091AB0AF091C6
:1029C000AC0AE0937B0AF0937C0AE091B40AF091A0
:1029D000B50AE0937D0AF0937E0AE091BD0AF0917A
:1029E000BE0A0E940322E0937F0AF093800A60935C
:1029F000810A7093820AE091C60AF091C70A0E9488
:102A00000322E093830AF093840A6093850A70930B
:102A1000860AE091CF0AF091D00AE093870AF093FA
:102A2000880AE091D80AF091D90AE093890AF093D4
:102A30008A0AE091E10AF091E20A0E940322E093FF
:102A40008B0AF0938C0A60938D0A70938E0AE09142
:102A5000EA0AF091EB0A0E940322E0938F0AF093B6
:102A6000900A6093910A7093920AE091F30AF091B0
:102A7000F40AE093930AF093940AE091FC0AF0912F
:102A8000FD0AE093950AF093960AE091050BE09316
:102A9000970AE0910E0BF0910F0BE093730AF093FD
:102AA000740A0E940A2210E01330E8F400E00830B3
:102AB000C0F40E94881E0E941425BF01EF5AF44FF3
:102AC000DF01E02F0E94711E0F01DB01A957BF4FEC
:102AD000EE27A00FBE1F0E940126D001EC930F5FCE
:102AE000E6CF1F5FE1CF0991199108951A9310E085
:102AF0001F3070F4A9E01A9FF0010E94AD21FD0182
:102B0000E050F040DB0189E00E9426261F5FF0CFF5
:102B10000E940A22D4C01A93A0916F0AB091700A41
:102B20008091710A9091720A0E94F3210E945324AD
:102B30000E949023E093170BF093180B10E01F30C6
:102B400078F4A9E01A9FF001DF01E050F040BF01E6
:102B5000FD010E94FD21DB010E940D261F5FEFCFCA
:102B6000AEC06197E3E00E94CE21E1E00E94251F04
:102B7000ACE1B9E00E9410090E94FB1F0E941C21D9
:102B80000E9424210E94D721E4E4F9E00E94082059
:102B90000E94591E0E947C210E94D2210E94391E4F
:102BA000AAE2B9E00E94291FA3E00E943609AAE325
:102BB000B9E00E941009E2E00E944320A5E4B9E0D8
:102BC0000E9410090E947D1FE2E9F9E0FA93EA935E
:102BD0000E941322E95AF44F0E9419220E941322E4
:102BE000E85AF44F0E94192288E00E94DC1C2C96BF
:102BF0000E947C21A8E0AE1BAA93A5E00E943609A2
:102C00000E94631E619608951A930E9463080E94B1
:102C1000441EE03091F510E0193088F40E94132230
:102C2000E957FF4FDF01EE27A10FBE1F0E94881E4C
:102C3000E75CF44FE0810E9415261F5FEDCFA5DE13
:102C40000E94391EA3E5B9E00E94291FA3E00E945B
:102C50003609A3E6B9E00E941009E2E00E94432091
:102C6000ABE6B9E00E94100990DEA0EDB7E00E944B
:102C70005323E1E0E0935A0A22C00E94391EA5E7DF
:102C8000B9E00E94BC1EA3E00E943609A5E8B9E0A5
:102C90000E94BC1EA4E00E943609A5E9B9E00E948A
:102CA000BC1EA5E00E943609A5EAB9E00E94BC1E40
:102CB000A6E00E943609A2EBB9E00E941009199122
:102CC0000895E7E00E94CE210E94B71EAEEBB9E066
:102CD0000E941009AFECB9E00E941009A0EEB9E023
:102CE0000E941009A1EFB9E00E941009A2E0BAE029
:102CF0000E9410090895E0E0EBBBECE0EABBE0E0E5
:102D0000E8BBE0E1E7BBE0E0E5BBE4BBE2BBE0E859
:102D1000E1BBE0E0E3B9E2B9E0936200E093610077
:102D2000E0936500E0936400E0BFE3E6E3BFE0E02A
:102D3000E2BFE1BFEFBDE5E0EEBDE7ECEDBDE1EBED
:102D4000ECBDE0E0E7BDE6BDEBBDEABDE9BDE8BD39
:102D5000E0937900E0937800E5E0E5BDE0E0E4BDD4
:102D6000E3BDE0938B00E0938A00E0938900E09359
:102D70008800E0938100E0938000E0938700E09377
:102D80008600E0938500E0938400E0938300E09365
:102D90008200E0E3E0936A00E0E0EABFE4E0E9BF3C
:102DA000E8BFE5E4E7BFE0E0E0937D00EBB9E8E9E8
:102DB000EAB9E6E0E0939500E0E0E0939000EFE50B
:102DC000E9B9E0E0E0939A00E0E8E8B9E0E0E0BDCE
:102DD000E0E4E7B9ECE8E6B9E0E0EDB9E0937400CF
:102DE000DB98DA9808950E9420220E94B71EA3E182
:102DF000BAE00E941009A4E2BAE00E941009A5E31B
:102E0000BAE00E9410090E943E1E0E9420220895EE
:102E1000AA931A930A9318E01130C0F0EB81AA81AB
:102E2000AE27E1E0EA230E2F003019F4EA81E6959F
:102E300007C0AA81E8E1EA27EA83E695EA83E06829
:102E4000EA83EB81E695EB831150E6CFEA811981A5
:102E5000088167C0BA93AA931A930A9300E010E01E
:102E6000173070F4AA81BB81EC91EA93A02FD0DFD8
:102E70000E2FEA81FB813196EA83FB831F5FF0CF3F
:102E8000AA81BB81EC91E01721F4E0E0198108816F
:102E900048C0E1E01981088144C0AA931A930A93BB
:102EA00000E0083078F4EB81E1701E2F103019F04B
:102EB000AA81AED102C0AA81C2D1EB81E695EB8393
:102EC0000F5FEFCF198108812CC0AA931A930A9340
:102ED00010E000E0083040F41695AA81CAD1E03035
:102EE00009F010680F5FF6CFE12F0C947C19AA93BC
:102EF000ECECEA93A981D1DF89C1AA931A9318E077
:102F0000E5E5EA93AA81C9DF113050F0AA81BB81BF
:102F1000ED91AA83BB83EA93AA81BFDF1150F4CF5E
:102F2000188124960895AA930E94422611E000E099
:102F300031E0E0EFEA93AF81B0DF113410F00C9490
:102F4000E617AE8196D12E2FAE8193D15E2F203021
:102F500011F0503009F403C00FEFEFEF38C0E52F48
:102F6000E22759F0203029F0A885B985EC91E32BB0
:102F700002C00E942822EC9317C0EF81E11731F4C0
:102F8000A885B985EC91E32BEC930EC0EF81E11796
:102F900028F40E942822EC93012F06C0A885B98549
:102FA000EC91E32309F4012FA885B985EC91E32383
:102FB00019F0AE812DD102C0AE8141D11F5F330F18
:102FC000303019F431E00E943122B7CFE02F0E9457
:102FD00049262A960895BA93AA932397E0E0E883B6
:102FE0000E94422610E0EC851E1788F400E00830AD
:102FF00060F40E94881E0E943722AE0FBF1FEE278A
:10300000A00FBE1FEC930F5FF2CF1F5FECCFE0E08D
:10301000EF832D853E85E887A901A985BA85EC93C4
:103020003A932A935A934A93A8E0B0E00E948019F9
:10303000AB8541D1E03011F4EFEF2CC03A932A93E5
:10304000EA85EA93AE856FDFE887A901EF81EF5F3C
:10305000EF83F0E00E943722EA0FFB1F9F01E88513
:10306000E030F1F610E0EF811E1798F40E94881E00
:103070000E943722AE0FBF1FEDDEE03019F0E1E015
:10308000EE8305C0A985BA85EC91EF5FEC931F5FD5
:10309000EACFEE810E9449262F960895AA93A8812F
:1030A0000AD1A88124DFE4E4EA93A981F6DEAEC068
:1030B000AA932D970E94442600E010E020E030E023
:1030C000A989F9D0EA89FB89FA93EA93AB8915DFDC
:1030D000EEEBEA93AA89E1DEA989F7DEEC83A98900
:1030E000F4DEED83E07889F0E0E0FD81DF01EC8142
:1030F000F0E0EA2BFB2B8F01F801E095F09531967B
:103100008F010C831D8321E030E0EC81F0E00E9410
:103110001B25DF01ED81E770F0E00E941225EA2B0C
:10312000FB2B0E9433200E943C22EC81EF700E9416
:103130008620A0E0B0E080E89DE30E945324AD85A6
:10314000BE858F8598890E9403240E943C22022E0E
:10315000032A61F0AD85BE858F859889E0E0F0E0B7
:1031600060E87FEB0E9453240E943C22ED85FE859F
:103170006F8578890E944B2664960895AA932997B3
:103180001A930E944122EEE40E944B22EB850E949A
:103190004B22EC850E944B22EA850E944B220E9422
:1031A0004122EEEB0E944B2210E0183078F40E948E
:1031B000881EDE011196EA0FFB1FFF93EF93AD858A
:1031C00084DEAF91BF91EC931F5FEFCFEB85AB81B6
:1031D0000E94862149F4EC85AC810E94862121F46D
:1031E000EA85AD81EA1709F004C0E0E018810C948B
:1031F000BE1AE0E118810C94BE1AAA93E1B3AE2F77
:10320000E8810E944F22E8810E945522219608956C
:10321000AA931A931FB7F8940E945D2289E18A95B8
:10322000F1F7E1B3AE2FE9810E944F22E981E095E9
:10323000EA23E2BB83EF90E00197F1F716C0AA936F
:103240001A931FB7F8940E945D2285EE90E00197D3
:10325000F1F7E1B3AE2FE9810E944F22E981E095B9
:10326000EA23E2BB8CE28A95F1F71FBF1881229610
:103270000895AA931A930A931FB7F8940E9468229C
:10328000E095EA23E2BB89E18A95F1F7E1B3AE2F3D
:10329000EA810E944F22EA81E095EA23E2BB87E2BD
:1032A0008A95F1F7E0B3AA81EA230E2F82ED90E030
:1032B0000197F1F71FC0AA931A930A931FB7F894C6
:1032C0000E9468220E945522E1B3AE2FEA810E943B
:1032D0004F22EA81E095EA23E2BB89E091E0019781
:1032E000F1F7E0B3E095AA81EA230E2F81E396E09F
:1032F0000197F1F71FBFE02F1981088123960895E8
:10330000BA93AA9399818881009641F0BD81AC81DE
:10331000FB81EA8161916D930197E1F7FD81EC8179
:1033200026960895BA93AA93E991F991A991B99132
:10333000CD0105900D920020E1F7FC010895BA93AC
:10334000AA93A991B991EE27FF276D91662311F0F9
:103350003196FBCF0895BA93AA93AA27BB27E99188
:10336000F9910590002011F01196FBCFFD01089511
:10337000BA93AA931A930A93AA81BB8112960E94C8
:10338000CE25309729F1AA81BB8114960E94CE25C3
:103390008F01309761F00230E0E01E07C0F0F801C5
:1033A00031978F01AA81BB811496ED93FC93AA817A
:1033B000BB8112960E942E1E3197AC81A083AA81F8
:1033C000BB810E94CE25FF2312F00E942E1E06C054
:1033D000AA81BB81EFEFFFEFED93FC931981088188
:1033E000259608950E947022E0E8EA83EFE3EB83DC
:1033F0000E944426EE85FF85EF3FAFEFFA0749F4C0
:10340000E885F985FA93EA93A0E8BAE00E94921958
:10341000B3C0EF3FAFE7FA0749F4E885F985FA93BF
:10342000EA93A1E8BAE00E949219A6C0AB85A73042
:1034300010F0E6E0EB871B85E12F1150E03019F02A
:103440000E947722F9CFEC85FD856E857F850E94ED
:103450003A2621F430E00E9477222EC03B850E945C
:10346000862209F010F40C94401A0E9477220E94E0
:10347000862228F00E9491220E949622F8CF0DC049
:103480000E94862240F40E9491220E94A2220E9461
:10349000A9223150F5CF0E947722EC85FD856E85FB
:1034A0007F850E94AE220E94A9220E94862220F0DF
:1034B0000E9491220E94962210E0EB85E11780F194
:1034C000AC81BD818E819F810E94B5220E94AE2277
:1034D000DF01CB010E94091EEC83FD836E837F8395
:1034E0000E9491220E944F200E2F0E94BC220E9417
:1034F000C3220E948620AC81BD818E819F810E9463
:1035000053240E9491220E9425200E94A922E12F8B
:103510001F5FE03091F60E94BC22EEE2EC93CDCF2B
:103520000E9431223197AA85A08330302CF4319546
:10353000A885B985EDE203C0A885B985EBE2EC93D7
:103540000E9431220E9431223197BF01A32FEAE06D
:103550000E947525E05DDB01EC930E9431223197DA
:10356000BF01A32FEAE00E949F25E05DDB01EC9301
:10357000A885B985E0E0EC930E944B2660960895FB
:10358000BA93AA93EF9761970E94422610E0FE013A
:10359000E85AFF4F0190F081E02DE887F987FE019E
:1035A000EA5AFF4F0190F081E02DEE83FF83AE8158
:1035B000BF81E0E0F0E0ED93FC93DE01A45ABF4F41
:1035C0000E942E1E3197E4912E2FE03011F40C94BE
:1035D000D31CE12FE03039F4253211F411E002C0A0
:1035E0000E94C822DFC1E130C1F4253219F40E94E3
:1035F000C822D7C112E0E0E0ED8B00E02D3211F4DB
:1036000001E0D0C12B3219F4EBE2ED8BCBC12032BB
:1036100019F4E0E2ED8BC6C102C0E23039F450E0AB
:1036200013E0203311F40068BDC102C0E33091F40F
:10363000203310F02A3308F007C0AAE05A9F502D1B
:10364000E22FE0535E0FAEC140E02E3211F414E0E1
:10365000A9C10FC0E43099F4203310F02A3308F0E8
:1036600008C00062AAE04A9F402DE22FE0534E0FAF
:1036700099C12C3619F4026015E094C104C0E530FC
:1036800011F00C94D21CE22FE33659F40E94CF22A1
:103690000E94D6220E94CF22A481AA930E94DD22FA
:1036A00080C1E53411F0E53609F404C0E63611F0C6
:1036B0000C94A01BFE017696EE87FF870E94E32202
:1036C0000E94D2250E94EA220E94EF22AD85AA2301
:1036D00022F0AD89AB3249F017C00E94F1220E945E
:1036E0005D230E94EA22EDE2ED8B07FF05C0ED8924
:1036F000EA930E94DD2208C0EE85FF853196EE87B1
:10370000FF873197AD89A08305FF46E0263651F447
:103710000E94F1220E94EA254A93AB89BC890E944B
:10372000181D09C00E94F1220E94EA254A932A939B
:10373000AC89BD8957DEFE0176960E94F6221EC036
:10374000E33739F40E94EF220E94FE220E94F62203
:103750000EC0E037C1F40E94EF220E94FE22EE87E5
:10376000FF87AE85BF850E94AB191E2F08600F77BB
:10377000403011F0411708F001C0142F40E0E0E0A4
:10378000EC8B30E06EC0E43611F0E93611F40460E1
:1037900002C0E537A1F4EAE0EC8B01FF08C0E0E0ED
:1037A000FAEC6AE97BE30E9403231AE023C0E0E11C
:1037B000F7E260E070E00E94032315E01BC0E835EB
:1037C00011F4086004C0E83711F00C94D11CE0E15A
:1037D000EC8B01FF08C0E0E0F0E060E070E10E94E7
:1037E000032318E007C0E0E0F0E160E070E00E9431
:1037F000032314E0403011F00F7701C041E001FFD6
:1038000008C00E94EF220E94E32214960E94D22553
:103810000FC002FF07C00E94EF220E94FE220E94FA
:103820002A2506C00E94EF220E94FE2266277727E3
:10383000EA87FB876C877D8702FF12C0AD85AA23CC
:1038400042F40E94F1220E940A250E94EA22EDE23F
:10385000ED8BED89E03019F01F5F4F5F01C00B7FEA
:10386000342F00FD14C0151710F4351708F00FC0E1
:1038700007FF08C002FF04C00B7F2D89115001C053
:1038800020E301C020E20E94C8225150ECCF14175F
:1038900090F4006102FF06C00E94082309F0515015
:1038A00011504150E0E3EA930E94DD22503009F0CC
:1038B00051504150ECCF312FEC89E030B9F4303029
:1038C000A1F003FF06C0EE85FF852591EE87FF87F7
:1038D00005C0AE85BF852D91AE87BF870E94C822E7
:1038E000503009F051503150EACF51C00E941A2394
:1038F0000E947A252E2F2A3030F003FF02C0295C67
:1039000001C0295A01C0205D04FD21C0213360F4AB
:10391000A889B9898A899B89A130E0E0BE07E0E0E7
:103920008E07E0E09E0709F40BC0431740F45317DD
:1039300010F000FF01C010C020E207FF08C020E324
:10394000006102FF04C00E94082309F051500E9448
:10395000C822503009F0515031500E941A230E9461
:10396000AB250E94EA22EC89A889B9898A899B89BA
:10397000FF27662777270E947A250E940323E8897C
:10398000F9896A897B890E943A2609F0AFCF00FF46
:1039900008C0503031F05150E0E2EA930E94DD223D
:1039A000F8CF10E00ACEAE81BF810E94CE250E94E2
:1039B0004926EF966F960895FF92F82E26970E945B
:1039C00044260E942323309719F4EFEFFFEF23C022
:1039D000DE0116960E9406258D010E942323EE83A8
:1039E000FF83E0E0E887E987DE011A960E9406255A
:1039F0000E94CE25FA93EA931A930A93E8EBF9E131
:103A0000FA93EA93DE011A96BBDD9F01AE81BF8176
:103A1000E0E0EC93F9010E944B262A96FF9008956E
:103A20000E94EF25E991F991699179917F77089545
:103A30000E947022E0E0EA83EFE3EB831A930A939B
:103A4000EB85FC85EF3FAFEFFA0739F40E942A239C
:103A5000A8E8BAE00E949219A7C0EF3FAFE7FA07C3
:103A600039F40E942A23A9E8BAE00E9492199CC066
:103A7000AC85AA2362F4E985FA856B857C850E9472
:103A80005D230E942F230E943423EDE2EC93A8854E
:103A9000A73010F0E6E0E8871885E12F1150E030FC
:103AA00039F00E943B230E94B5220E944023F5CFAB
:103AB0000E9445230E9403240E942F2310E0E0E08F
:103AC000F0E060E87FE30E9440230E9445230E94CB
:103AD000E62488F00E943B230E94A2220E944023F9
:103AE0001F5F173238F00E942A23ADE8BAE00E9427
:103AF00092195AC0EACF103029F40E943423E0E32F
:103B0000EC9327C0E12F1150E03019F10E943B23C4
:103B10000E94B5220E94AE22DF01CB010E94091E45
:103B20000E9440230E9445230E944F200E2F0E9496
:103B300034230E94C322F0E00E943B230E943320E2
:103B40000E9453240E944E230E9425200E942F236E
:103B5000D9CFE885E03021F10E943423EEE2EC93E6
:103B6000E885E150E887EF5FD9F00E944E230E947C
:103B7000A2220E942F23E985FA856B857C850E940D
:103B800090230E2F0E9434230E94C322F0E00E9453
:103B90004E230E9433200E9425200E942F23E0CF35
:103BA000AE81BF81E0E0EC93198108812D960895E4
:103BB0000E94EF257B816A81F981E88177FB770F8D
:103BC00067FD7160972F9E5781F078F0983190F4DF
:103BD000AA27BB27882708948795B795A7959A9514
:103BE000D1F7EA23FB23682305C0E8947727EE2763
:103BF000FF2766276F77769508F4606877F9A991B3
:103C0000B99189919991EA17FB076807790797FBA2
:103C100008950E94EF250E94E0250E94D81D0E9471
:103C2000E52519F40E94DB2509C0E6F70E94DB2593
:103C3000A0E0B0E080E89FE30E94FC232496089572
:103C40000A921A92FA926A937A938A939A93AA930F
:103C5000BA93EA93FA93EFB7EA930895ED91FD9141
:103C60003196FE93EE930895E0E0EA93A0E00C9481
:103C70003609E0E0EA93A2E00C943609A0EDB7E043
:103C80000E9453230C946308E9E3FBE0FA93EA9360
:103C9000E3E0EA93E8E0EA93A2E6BAE00C94EB17DB
:103CA000E6E4FAE0FA93EA93E4EFF5E0FA93EA93B4
:103CB000089584E00E94DC1C28960895E1E0EA93D0
:103CC000A5E00C943609A6E4BAE00C9402090E941F
:103CD0008508E0E0EA930895E1E0EA93A0E00C941F
:103CE0008508F0E0EA0FFB1F0895EA81F0E07E9777
:103CF000A5E0B0E00E943425E256FF4FDF01E12F3E
:103D0000F0CFF0E0E852F14F0895EB81F0E0089534
:103D1000E12FF0E00895E091040FF0E0ED51F14F54
:103D20000895E1E5FBE0FA93EA93E8E0EA93E9E13C
:103D3000EA93E3E2EA93AFE50E94BE18E03008950B
:103D4000E9E5FBE0FA93EA93E8E0EA93E9E1EA9334
:103D5000E3E2EA93AFE50E94BE18E0300895E0E0A8
:103D6000E093650AE093660AE093670A0895E0E04D
:103D7000EA93A1E00C9436090E941009E0E0EA936E
:103D80000895A091280FB091290F80912A0F90914A
:103D90002B0FE0911C0FF0911D0F60911E0F709181
:103DA0001F0F0E94FC23DF01CB010895E0E0F0E04B
:103DB00060E07EE30E94E6240895E0E0F0E060E049
:103DC0007EEB0E94E6240895A091300FB091310F50
:103DD0008091320F9091330FE091240FF091250FD5
:103DE0006091260F7091270F0E94FC23DF01CB0109
:103DF0000895A0E00E94B107A091630AB091640AFF
:103E0000EA1BFB0B0E942A250E94C923A6EFB8E2F9
:103E10008CE990E40E945324DF01CB01EDE1FAE547
:103E200060EF70E40E94A124DF01CB01E7EEF6E829
:103E300069E571E40E94A124E093340FF093350FFB
:103E40006093360F7093370F0895EA93A0E00C94B7
:103E500036090E941009E3E0EA9308950E941009D0
:103E6000E1E0EA930895A3E00E943609E6E4FAE06F
:103E7000FA93EA930895E1E3F7E0FA93EA93E09185
:103E8000670AFF27662777270E94EA25E091660ADE
:103E9000FF27662777270E94EA25E091650AFF271A
:103EA000662777270E94EA258CE00E94DC1C60963A
:103EB0000ACFE1E0EA93A4E00E943609E6E4FAE0E2
:103EC000FA93EA930895E3E4F7E0FA93EA93E09132
:103ED000240FF091250F6091260F7091270F0E94FB
:103EE000EA250895FE013896662777270E94EA257D
:103EF00088E00E94DC1C2C960895E6E4FAE0FA9330
:103F0000EA930895E4E5F7E0FA93EA93E0911C0F51
:103F1000F0911D0F60911E0F70911F0F0E94EA25F6
:103F20000895FE013A96662777270E94EA250895AC
:103F300088E00E94DC1C2C96C6CEEA93A6E00C9486
:103F40003609E5E6F7E0FA93EA93E091340FF09151
:103F5000350F6091360F7091370F0E94EA25A9CE78
:103F60000E943609CACFFA93EA93E091680AFF27C4
:103F7000662777270E94EA259CCEE1E6FBE0FA93CC
:103F8000EA9308950E9463080C942013E0E0E09304
:103F90006B0AE0936C0A0895E0E0E0934C0FE09325
:103FA0004D0FCC2408950E941009E4E0EA9308958F
:103FB000A0912C0FB0912D0F80912E0F90912F0F6B
:103FC000E091200FF091210F6091220F7091230F4B
:103FD0000E94FC23DF01CB010895662777270E940A
:103FE000EA25A6CFE091200FF091210F6091220FDA
:103FF0007091230F0895FE01FA93EA930895EE0F4E
:10400000FF1FEA0FFB1F0E94D8250E94921975CF4F
:10401000FA93EA93FE013496662777270E94EA25F1
:104020000895E091480FF091490F60914A0F709107
:104030004B0F0895FA93EA93E091380FF091390FFE
:1040400060913A0F70913B0F08950E94F4250E94F1
:10405000FC230895E091950AF091960A6627772748
:104060000E94C92308950E942A250E94C923089509
:10407000A0916F0AB091700A8091710A9091720AB2
:104080000E9453240895EA93A4E00C943609E09129
:104090006A0AFF27662777270E94C92308950E948E
:1040A000A1240E9490230895662777270E94C923A0
:1040B0000895E0916B0AF0916C0A662777270895BE
:1040C0000E94A124E0936F0AF093700A6093710A32
:1040D0007093720A0895E093980AA9E0EA9FF001AC
:1040E000E756F54F0895E091350BE093370BE091DB
:1040F000360BE093380BE2E0E093350B08950E9415
:10410000EA25D7CDE0915A0AF0E00895FF27662707
:1041100077270E94C9230895A091400FB091410FC5
:104120008091420F9091430F0895E0933C0FF093DC
:104130003D0F60933E0F70933F0FE0E0E093400F20
:10414000E093410FE093420FE093430FBB240C94A4
:10415000390DE0911C0FF0911D0F60911E0F7091B1
:104160001F0FE093280FF093290F60932A0F70938D
:104170002B0F0895E091240FF091250F6091260FE9
:104180007091270FE093300FF093310F6093320F4F
:104190007093330FE1E5FBE0FA93EA93A8E00E9405
:1041A0005818E0931C0FF0931D0F60931E0F70932F
:1041B0001F0F0895A8E00E945818E093240FF09371
:1041C000250F6093260F7093270F0895E0911C0F21
:1041D000F0911D0F60911E0F70911F0F0895A09117
:1041E0001C0FB0911D0F80911E0F90911F0F08950D
:1041F000E0916B0AF0916C0A57DF3ACF0E9453248A
:10420000E093380FF093390F60933A0F70933B0FA0
:104210000895A091200FB091210F8091220F9091CD
:10422000230F0895ECE30E945C25A0915E0AB091F3
:104230005F0AAE17BF070895E091350BA0E2BBE01F
:10424000F0E00E9416250895AE0FBF1F12960E943F
:10425000CE25DF01E091360BF0E0BD01A7E0B0E034
:104260000E943425DB0108950E946308E1E0E09399
:104270005A0A08950E94CD0DE0E0E1BFE1E0E0932D
:104280005A0A80CEE0E0F0E068EC72E40895E09134
:10429000370BE093350BE091380BE093360BE1E000
:1042A00008950E942F25E0935B0A0C946308AE0FDB
:1042B000BF1F1196EC910895E093680AA091680AD7
:1042C0000895FE013696FA93EA93B6CFAE0FBF1F5C
:1042D0001696EC91A7E0EA9FF001A091220BB09115
:1042E000230BAE0FBF1F0E94CE25DF010E94921943
:1042F00004CEFA93EA9315CEA6E4BAE00E949F1981
:10430000F695E79508950E943609DDCCB0E0F0E01F
:10431000E7FDFFEFEA17FB070895AE0FBF1F1296E8
:104320000E94CE25DF01F4CCBD01A7E0B0E00E94E1
:104330003425DB01AE0FBF1F0E94CE25DF010E9496
:104340009219DBCDE091980AA9E0EA9FF001089567
:104350000E94CE25E617F7070895DF01E756F54FCF
:10436000BF010895A556B54F0E94CE25DB01ED9300
:10437000FC930895DF01E756F54F60817181089540
:10438000E756F54FDF01ED91FD910895A356B54F26
:104390000E94CE25DB01ED93FC930895E0935A0A29
:1043A0000C946308A8E0AE1BAA93A1E0ACCFAE0FBB
:1043B000BF1F0E94CE25DF010E9492199ECDE156BB
:1043C000F54FDF010E94CE25A0E9B0E018CEFA93A8
:1043D000EA93B8CFE756F54FDF010E94CE2564DEA1
:1043E000DF01CB010895E0E0F0E46CE176E40895AC
:1043F0000E94A1240E94EA2575CDE756F54FDF0102
:104400000E94CE25089550DEDF01CB013BDF0E94E4
:10441000A1240895E091170BF091180B45DEDF0100
:10442000CB01E1DF4DCEE091360BF0E00E94142588
:104430000895E081FF27662777270E94EA250895DF
:10444000A0E00E94B107E093630AF093640A089524
:10445000A885B9850A2EAC91E32FE095EA23A02D1B
:104460000895E885F9853196E887F9870895AD853F
:10447000BE850E9414250895ED87FE876F87788B8F
:104480000895AD850E945B19EE85FF85FA93EA9346
:10449000AF850C947D17EA93AE850C944D17E0958B
:1044A000EA23E1BBE2B3AE2F0895E095EA23E2BB35
:1044B00082E497E00197F1F70895E1B3A981EA2B2F
:1044C000E1BBE2B3AE2FE981E095EA23E2BB0895B8
:1044D000E1B3AA81EA2BE1BBE2B3AE2FEA810895F2
:1044E000BA93AA932497E0E0E883E9830895AC8126
:1044F000BD818E819F81E0E0F0E060E271E40E9486
:104500005324EC83FD836E837F830895EC81FD81CA
:104510006E817F81AC85BD858E859F850E94E62456
:104520000895AC85BD858E859F850895EDECFCECE6
:104530006CEC7DE30E945324EC87FD876E877F87B8
:104540003F5F0895E0E0F0E060E271E40E945324F0
:104550000895EC87FD876E877F870895A0E0B0E01F
:1045600080E09FE30E9403240895EDECFCEC6CECEA
:104570007DE30E9453240895A885B9851196A887E4
:10458000B98711970895E02FE05DEC93E02F08952F
:104590002A93AF81B885E985FA8509950895FE01CA
:1045A000E65AFF4F0190F081E02D08953497DE0127
:1045B000A65ABF4FED93FC930895AF81B885E98566
:1045C000FA8509950895DE01A65ABF4F0D90BC915A
:1045D000A02D0895EA87FB876C877D870895DFDF2C
:1045E000E5CFEA85FB856C857D850895EE87FF879D
:1045F000AE85BF850E949F191E2F0895E4DF149693
:104600000E94CE250895E88BF98B6A8B7B8B0895E9
:104610000B7FED89EA93DE01A95ABF4F0D90BC9143
:10462000A02DFE01E75AFF4F0190F081E02D099582
:1046300050300895E889F9896A897B89AA85BB8504
:104640008C859D850895DE011C960E9406250E949A
:10465000CE250895EE81FF81FA93EA930895E987C4
:10466000FA876B877C870895AE81BF811196AE83F0
:10467000BF8311970895AA81BB818C819D81089584
:10468000EA83FB836C837D830895EA81FB816C81DF
:104690007D81A985BA858B859C850895A985BA8574
:1046A0008B859C850895109639F086E69EE00197EB
:1046B000F1F7A8951197C9F70895309760407040B9
:1046C00009F070580895552342F4503811F4E0FF72
:1046D00004C03196691F791F6BF050E8572711F419
:1046E0005F93CFC05F3F31F0660F000C5795679521
:1046F000752F08955F9300200AF0CFC0C8C050E81E
:10470000192E1522880F991F9527550F879550E868
:10471000072E0522660F771F7527550F6795089599
:10472000689401C0E8945F93F2DF703818F07F3F1F
:1047300008F4A7C056E1571BAAF4519558300EF45F
:10474000593030F0EFEFFFEF6FEF7FE777F91AC0E6
:1047500077275523B9F0EE0FFF1F661F771F5A9575
:10476000D1F710C07727583028F0EF2FF62F672F9A
:104770005850F9CF552331F076956795F795E79521
:104780005A95D1F700200AF445D15F9108956894B5
:1047900001C0E894309760407040B1F0002426F0EA
:1047A000772312F4009436D1172E7EE1112032F0D7
:1047B0007A95EE0FFF1F661F111CF9CFEF2FF62F12
:1047C000612D5F938ADF5F9108954F93AF01FD01E3
:1047D000DA01AB01BC01CA01402D012C142E4F910E
:1047E0000895EA0FFB1F681F0895E095F095609506
:1047F000EF5FFF4F6F4F08955F9381DF903871F146
:1048000050E8152604C05F937ADF903839F170388C
:1048100021F1572F591B2BF112F4D7DFFACF583162
:1048200018F0AA27BB278827583028F0AB2FB82FBD
:1048300088275850F9CF552329F08695B795A79525
:104840005A95D9F7502D512572F0CBDF38F4679582
:10485000F795E795739513F420C0B7DF3EDF5F91BE
:104860000895D8F7FBCFEA1BFB0B680B51F010F44F
:104870000094BBDF662392F3EE0FFF1F661F7A954D
:10488000CBF7EE27FF27662777275F910895EFEF95
:10489000FFEF6FE77FEF5F910895EFEFFFEF6FE7B7
:1048A0007FE75F9108955F932ADF703851F3903866
:1048B00041F301240894791F23F41CF300203AF3F8
:1048C000ECCF0F921F932F933F934F9311272227E3
:1048D0009927689FA0018F9F302D410D591F6B9F15
:1048E000300D411D591F8E9F27D0BF9F25D06A9F35
:1048F00023D0BE9F1DD0AF9F1BD0AE9F110D291F8F
:10490000391F491F591FE32FF42F652F522F4F9145
:104910003F912F911F910F9066232AF0550FEE1FA4
:10492000FF1F661F02C073954BF2CDDE5F910895A5
:10493000100D211D391F02C0200D311D491F591FA7
:1049400008955F93DCDE703821F411200AF49FCFC4
:10495000A4CF903809F495CF01240894970B1BF449
:10496000D4F30020F3CF792F1F932F933F934F93CE
:1049700011241127222733274427552790E2AE1709
:10498000BF078607410730F0AE1BBF0B860B410BFC
:10499000089401C08894551F221F331F111CAA1FA1
:1049A000BB1F881F441F9A9551F7F901612D4F9144
:1049B0003F912F911F91662332F0550FEE1FFF1F7D
:1049C000661F7A9543F27FDE5F91089599239AF0EE
:1049D000772342F0971748F029F4AE17BF078607F0
:1049E00020F031F09894889408959894089408954C
:1049F0001894889408957723C2F7971798F3A9F726
:104A0000EA17FB07680788F399F3ECCF0024AF0D92
:104A1000B01D0895F09560957095E195FF4F6F4F2B
:104A20007F4F0895EE0FFF1FEE0FFF1FEE0FFF1FCA
:104A3000EE0FFF1F0895F595E795F595E795F59528
:104A4000E795F595E7950895FE2FFF0FFF0B6F2F64
:104A50007F2F08956F2F660F660B762F0895EE2334
:104A6000E1E009F0EE270895FA9FF02DEB9FF00D9D
:104A7000EA9FE02DF10D08957A9F702D6B9F700DC8
:104A8000F89F700DE99F700D6A9F602D710DFB9F5F
:104A9000600D711DE89F600D711D8827FA9FF02D34
:104AA000610D781FEB9FF00D611D781FEA9FE02DCF
:104AB000F10D681F781F08956E2F6A9FF0016B9F9C
:104AC000F00D089558D0D8DF0EF4A4DF0895002427
:104AD00098E0AA0F001C0E1A10F40E0E01C0A1607F
:104AE0009A95B9F7EA2FA02D089539D0F0DF0EF48A
:104AF000E19508953F934F935F9300241124442739
:104B0000552730E2AA0FBB1F881F991F001C111CDC
:104B1000441F551F0E1A1F0A460B570B28F40E0E82
:104B20001F1E461F571F01C0A1603A9559F7FD018E
:104B3000BC01D001CA015F914F913F910895E89463
:104B4000A7FF02C0A1956894E7FDE195C0DFEA2FB9
:104B50000EF4E1950895CEDFFD01BC010895E894BF
:104B6000E7FF02C0E1956894A7FF04C0A19500F893
:104B7000039400FA0895E89477FF02C04BDF68942D
:104B800097FF0BC00024A095B09580959095119645
:104B9000801D901D00F8039400FA0895ED91FC919A
:104BA00011970895ED91FD916D917C911397089562
:104BB000A591B4910895E881F9816A817B81089576
:104BC000A881B9818A819B810895E883F9836A83EA
:104BD0007B8308957A936A93FA93EA9308959A935C
:104BE0008A93BA93AA930895182E862F612D192EB1
:104BF000972F712D1B2EBF2FF12D1A2EAE2FE12DC9
:104C00000895E199FECFFF93FFB7F894AEBBBFBB09
:104C1000E09AEDB3FFBFFF91089507D01196EF938F
:104C2000EF2F03D0EF9111970895E19B02C0A89553
:104C3000FCCF9FB7F894AEBBBFBBE09A8DB3E8172B
:104C400019F0EDBBE29AE19A9FBF08959927EF937F
:104C5000FF93A895E199FDCF7FB7F894EEBBFFBB1A
:104C6000E09A6DB37FBF31966D93019791F7FF91F5
:104C7000EF910895309760407040089500240A161F
:104C80000B0608955A934A933A932A931A930A93D8
:104C900008955D814C813B812A81198108810895A5
:00000001FF
